{"abi":[{"type":"constructor","inputs":[{"name":"_governance","type":"address","internalType":"address"}],"stateMutability":"nonpayable"},{"type":"receive","stateMutability":"payable"},{"type":"function","name":"budgets","inputs":[{"name":"","type":"address","internalType":"address"}],"outputs":[{"name":"totalBudget","type":"uint256","internalType":"uint256"},{"name":"spentAmount","type":"uint256","internalType":"uint256"},{"name":"resetTimestamp","type":"uint256","internalType":"uint256"},{"name":"active","type":"bool","internalType":"bool"}],"stateMutability":"view"},{"type":"function","name":"emergencyWithdraw","inputs":[{"name":"to","type":"address","internalType":"address"},{"name":"amount","type":"uint256","internalType":"uint256"}],"outputs":[],"stateMutability":"nonpayable"},{"type":"function","name":"executeSpending","inputs":[{"name":"spendingId","type":"uint256","internalType":"uint256"}],"outputs":[],"stateMutability":"nonpayable"},{"type":"function","name":"getBalance","inputs":[],"outputs":[{"name":"","type":"uint256","internalType":"uint256"}],"stateMutability":"view"},{"type":"function","name":"governance","inputs":[],"outputs":[{"name":"","type":"address","internalType":"address"}],"stateMutability":"view"},{"type":"function","name":"proposeSpending","inputs":[{"name":"recipient","type":"address","internalType":"address"},{"name":"amount","type":"uint256","internalType":"uint256"},{"name":"purpose","type":"string","internalType":"string"}],"outputs":[{"name":"","type":"uint256","internalType":"uint256"}],"stateMutability":"nonpayable"},{"type":"function","name":"setBudget","inputs":[{"name":"department","type":"address","internalType":"address"},{"name":"amount","type":"uint256","internalType":"uint256"}],"outputs":[],"stateMutability":"nonpayable"},{"type":"function","name":"spendFromBudget","inputs":[{"name":"department","type":"address","internalType":"address"},{"name":"amount","type":"uint256","internalType":"uint256"}],"outputs":[],"stateMutability":"nonpayable"},{"type":"function","name":"spendingCount","inputs":[],"outputs":[{"name":"","type":"uint256","internalType":"uint256"}],"stateMutability":"view"},{"type":"function","name":"spendings","inputs":[{"name":"","type":"uint256","internalType":"uint256"}],"outputs":[{"name":"recipient","type":"address","internalType":"address"},{"name":"amount","type":"uint256","internalType":"uint256"},{"name":"purpose","type":"string","internalType":"string"},{"name":"timestamp","type":"uint256","internalType":"uint256"},{"name":"executed","type":"bool","internalType":"bool"}],"stateMutability":"view"},{"type":"event","name":"BudgetSet","inputs":[{"name":"department","type":"address","indexed":true,"internalType":"address"},{"name":"amount","type":"uint256","indexed":false,"internalType":"uint256"}],"anonymous":false},{"type":"event","name":"EmergencyWithdraw","inputs":[{"name":"to","type":"address","indexed":true,"internalType":"address"},{"name":"amount","type":"uint256","indexed":false,"internalType":"uint256"}],"anonymous":false},{"type":"event","name":"FundsReceived","inputs":[{"name":"from","type":"address","indexed":true,"internalType":"address"},{"name":"amount","type":"uint256","indexed":false,"internalType":"uint256"}],"anonymous":false},{"type":"event","name":"SpendingExecuted","inputs":[{"name":"id","type":"uint256","indexed":true,"internalType":"uint256"}],"anonymous":false},{"type":"event","name":"SpendingProposed","inputs":[{"name":"id","type":"uint256","indexed":true,"internalType":"uint256"},{"name":"recipient","type":"address","indexed":false,"internalType":"address"},{"name":"amount","type":"uint256","indexed":false,"internalType":"uint256"},{"name":"purpose","type":"string","indexed":false,"internalType":"string"}],"anonymous":false},{"type":"error","name":"AlreadyExecuted","inputs":[]},{"type":"error","name":"BudgetExceeded","inputs":[]},{"type":"error","name":"InsufficientBalance","inputs":[]},{"type":"error","name":"InvalidAmount","inputs":[]},{"type":"error","name":"OnlyGovernance","inputs":[]}],"bytecode":{"object":"0x60803461007457601f610a5e38819003918201601f19168301916001600160401b038311848410176100795780849260209460405283398101031261007457516001600160a01b0381169081900361007457600080546001600160a01b0319169190911790556040516109ce90816100908239f35b600080fd5b634e487b7160e01b600052604160045260246000fdfe6080806040526004361015610049575b50361561001b57600080fd5b6040513481527f8e47b87b0ef542cdfa1659c551d88bad38aa7f452d2bbb349ab7530dfec8be8f60203392a2005b60003560e01c90816312065fe0146108c057508063147e7e661461085f5780634f7311ad146108415780635aa6e6751461081857806374bfb4261461073657806395ccea67146106ab5780639b0be3e0146105f5578063b5285d83146104e8578063c9a2505d146101c05763f8b2a034146100c4573861000f565b346101bb5760403660031901126101bb576100dd6108d9565b6001600160a01b0316600090815260026020526040902060038101546024359060ff16156101a9576002820180544211610177575b5060018201805492610124838561098b565b905410610165576000808084819461013c828961098b565b905581811561015c575b3390f11561015057005b6040513d6000823e3d90fd5b506108fc610146565b6040516350b2c4e160e01b8152600490fd5b6000600184015562278d00420190814211610193575538610112565b634e487b7160e01b600052601160045260246000fd5b60405163162908e360e11b8152600490fd5b600080fd5b346101bb5760603660031901126101bb576101d96108d9565b60443567ffffffffffffffff81116101bb57366023820112156101bb57806004013567ffffffffffffffff81116104ae5760405191610222601f8301601f191660200184610929565b81835236602483830101116101bb578160009260246020930183860137830101526000546001600160a01b031633036104d657602435156101a95760243547106104c4576003549160001983146101935760018301600355604051928360a081011067ffffffffffffffff60a0860111176104ae5760a0840160405260018060a01b038216845260208401906024358252600160408601918583524260608801526000608088015201600052600160205260406000209160018060a01b038651166bffffffffffffffffffffffff60a01b8454161783555160018301555193845167ffffffffffffffff81116104ae5761031f60028401546108ef565b95601f8711610467575b602096508690601f83116001146103f057928260049360809361038897966000926103e5575b50508160011b916000199060031b1c19161760028501555b606081015160038501550151151591019060ff801983541691151516179055565b7f8bb4b1fb7805b45f2f74bf035c58f507ffa4d2231d2559922a61e738e1a33e016003549283926103da60405192839260018060a01b031683526024358884015260606040840152606083019061094b565b0390a2604051908152f35b015190508a8061034f565b9060028501600052876000209160005b601f1985168110610450575083608093610388979693600193600497601f19811610610437575b505050811b016002850155610367565b015160001960f88460031b161c191690558a8080610427565b919289600181928685015181550194019201610400565b600284016000526020600020601f830160051c8101602084106104a7575b601f890160051c8201811061049b575050610329565b60008155600101610485565b5080610485565b634e487b7160e01b600052604160045260246000fd5b604051631e9acf1760e31b8152600490fd5b6040516354348f0360e01b8152600490fd5b346101bb576020806003193601126101bb576004356000526001808252604060002060018060a01b0381541691808201549060028301908560405192600092815491610533836108ef565b808752928281169081156105d35750600114610599575b505050509061055e81610588930382610929565b60ff600460038601549501541692604051968796875286015260a0604086015260a085019061094b565b916060840152151560808301520390f35b6000908152838120939450925b8284106105c057505050820101858261058861055e61054a565b80548685018601529284019281016105a6565b60ff191685880152505050151560051b8301019050858261058861055e61054a565b346101bb5760203660031901126101bb57600054600435906001600160a01b0390811633036104d657816000526001602052604060002060048101805460ff8116610699574760018401548091106104c457600094859485946001869560ff19161790555416828215610690575bf115610150577f5c2ec12b63b7b54d8ac1a7df71c5c424816046448452ab3461c2eed4d971d0d5600080a2005b506108fc610663565b604051630dc1019760e01b8152600490fd5b346101bb5760403660031901126101bb576106c46108d9565b600054602435916001600160a01b0391821633036104d6578247106104c457169060008183811561072c575b600092839283928392f1156101505760207f5fafa99d0643513820be26656b45130b01e1c03062e1266bf36f88cbd3bd969591604051908152a2005b6108fc92506106f0565b346101bb5760403660031901126101bb5761074f6108d9565b6000546001600160a01b039160243591831633036104d65762278d004201918242116101935760405192608084019380851067ffffffffffffffff8611176104ae57600360209461080f937f107877fe73fde3011599848fdc241395c13078377bc23c53e1b2d791340ba72e976040528584528684019860008a52604085019182526060850192600184521698896000526002885260406000209451855551600185015551600284015551151591019060ff801983541691151516179055565b604051908152a2005b346101bb5760003660031901126101bb576000546040516001600160a01b039091168152602090f35b346101bb5760003660031901126101bb576020600354604051908152f35b346101bb5760203660031901126101bb576001600160a01b036108806108d9565b1660005260026020526080604060002080549060018101549060ff6003600283015492015416916040519384526020840152604083015215156060820152f35b346101bb5760003660031901126101bb57602090478152f35b600435906001600160a01b03821682036101bb57565b90600182811c9216801561091f575b602083101461090957565b634e487b7160e01b600052602260045260246000fd5b91607f16916108fe565b90601f8019910116810190811067ffffffffffffffff8211176104ae57604052565b919082519283825260005b848110610977575050826000602080949584010152601f8019910116010190565b602081830181015184830182015201610956565b919082018092116101935756fea26469706673582212207d2f9cac69ec97a04f4127e00459553d5bc8be45d4e29329be06945c8ebb67e864736f6c63430008130033","linkReferences":{}},"methodIdentifiers":{"budgets(address)":"147e7e66","emergencyWithdraw(address,uint256)":"95ccea67","executeSpending(uint256)":"9b0be3e0","getBalance()":"12065fe0","governance()":"5aa6e675","proposeSpending(address,uint256,string)":"c9a2505d","setBudget(address,uint256)":"74bfb426","spendFromBudget(address,uint256)":"f8b2a034","spendingCount()":"4f7311ad","spendings(uint256)":"b5285d83"},"id":3}