{"abi":[{"type":"constructor","inputs":[{"name":"_aggregator","type":"address","internalType":"address"}],"stateMutability":"nonpayable"},{"type":"function","name":"activateEmergencyStop","inputs":[],"outputs":[],"stateMutability":"nonpayable"},{"type":"function","name":"admin","inputs":[],"outputs":[{"name":"","type":"address","internalType":"address"}],"stateMutability":"view"},{"type":"function","name":"aggregator","inputs":[],"outputs":[{"name":"","type":"address","internalType":"address"}],"stateMutability":"view"},{"type":"function","name":"circuitBreakerThreshold","inputs":[],"outputs":[{"name":"","type":"uint256","internalType":"uint256"}],"stateMutability":"view"},{"type":"function","name":"configureFeed","inputs":[{"name":"token","type":"address","internalType":"address"},{"name":"feedAddress","type":"address","internalType":"address"},{"name":"decimals","type":"uint8","internalType":"uint8"},{"name":"heartbeat","type":"uint256","internalType":"uint256"},{"name":"minAnswer","type":"uint256","internalType":"uint256"},{"name":"maxAnswer","type":"uint256","internalType":"uint256"}],"outputs":[],"stateMutability":"nonpayable"},{"type":"function","name":"deactivateEmergencyStop","inputs":[],"outputs":[],"stateMutability":"nonpayable"},{"type":"function","name":"emergencyStop","inputs":[],"outputs":[{"name":"","type":"bool","internalType":"bool"}],"stateMutability":"view"},{"type":"function","name":"feedConfigs","inputs":[{"name":"","type":"address","internalType":"address"}],"outputs":[{"name":"feedAddress","type":"address","internalType":"address"},{"name":"decimals","type":"uint8","internalType":"uint8"},{"name":"heartbeat","type":"uint256","internalType":"uint256"},{"name":"minAnswer","type":"uint256","internalType":"uint256"},{"name":"maxAnswer","type":"uint256","internalType":"uint256"},{"name":"isActive","type":"bool","internalType":"bool"}],"stateMutability":"view"},{"type":"function","name":"getPrice","inputs":[{"name":"token","type":"address","internalType":"address"}],"outputs":[{"name":"","type":"uint256","internalType":"uint256"},{"name":"","type":"uint256","internalType":"uint256"}],"stateMutability":"view"},{"type":"function","name":"lastGoodPrice","inputs":[{"name":"","type":"address","internalType":"address"}],"outputs":[{"name":"","type":"uint256","internalType":"uint256"}],"stateMutability":"view"},{"type":"event","name":"CircuitBreakerTriggered","inputs":[{"name":"token","type":"address","indexed":true,"internalType":"address"},{"name":"price","type":"uint256","indexed":false,"internalType":"uint256"},{"name":"lastPrice","type":"uint256","indexed":false,"internalType":"uint256"}],"anonymous":false},{"type":"event","name":"EmergencyStopActivated","inputs":[],"anonymous":false},{"type":"event","name":"EmergencyStopDeactivated","inputs":[],"anonymous":false},{"type":"event","name":"FeedConfigured","inputs":[{"name":"token","type":"address","indexed":true,"internalType":"address"},{"name":"feed","type":"address","indexed":false,"internalType":"address"},{"name":"heartbeat","type":"uint256","indexed":false,"internalType":"uint256"}],"anonymous":false},{"type":"error","name":"CircuitBreakerActive","inputs":[]},{"type":"error","name":"EmergencyStopped","inputs":[]},{"type":"error","name":"InvalidPrice","inputs":[]},{"type":"error","name":"StalePrice","inputs":[]},{"type":"error","name":"Unauthorized","inputs":[]}],"bytecode":{"object":"0x60803461008057601f61061638819003918201601f19168301916001600160401b038311848410176100855780849260209460405283398101031261008057516001600160a01b03811690819003610080576103e860045560018060a01b031933816002541617600255600354161760035560405161057a908161009c8239f35b600080fd5b634e487b7160e01b600052604160045260246000fdfe608060408181526004918236101561001657600080fd5b600092833560e01c91826302a517ab1461047857508163245a7bfc1461045057816341976e091461035e578163442082fa146102ea57816363a599a4146102c65781637d0b0a34146102a85781638429bbf614610271578163985957ab1461020b578163c86e4dcc146100bd575063f851a4401461009357600080fd5b346100b957816003193601126100b9576020906001600160a01b03600254169051908152f35b5080fd5b9050346102075760c0366003190112610207576100d86104da565b90602435916001600160a01b03918284168094036102035760443560ff81168091036101ff5760643593806002541633036101f157917f750327043ffae20b385a3e50bf6ac0194907cec1b68b3eb94f060a0961e606859593918897959361013e6104f5565b918683526020830190815287830186815260608401916084358352608085019360a43585528a8160a088019960018b52169d8e815280602052209551167fffffffffffffffffffffff00000000000000000000000000000000000000000074ff00000000000000000000000000000000000000008754935160a01b16921617178455516001840155516002830155516003820155019051151560ff8019835416911617905582519182526020820152a280f35b8287516282b42960e81b8152fd5b8680fd5b8580fd5b8280fd5b919050346102075782600319360112610207576001600160a01b036002541633036102655782600160ff1960055416176005557f4e360eaf5c2a0e4ebb03155da87ffa096252cc2ec66db5848b4ef13e99172bbd8180a180f35b516282b42960e81b8152fd5b5050346100b95760203660031901126100b957806020926001600160a01b036102986104da565b1681526001845220549051908152f35b90503461020757826003193601126102075760209250549051908152f35b5050346100b957816003193601126100b95760209060ff6005541690519015158152f35b8383346100b95760203660031901126100b95760c092816001600160a01b0393846103136104da565b16815280602052209081549260018301549060ff80600286015494600387015496015416958251978116885260a01c16602087015285015260608401526080830152151560a0820152f35b82843461044d57602036600319011261044d576103796104da565b60ff60055416610425576001600160a01b03809116908183528260205260ff85858520826103a56104f5565b948254908116865260a01c1660208501526001810154878501526002810154606085015260038101546080850152015416159060a082159101526103fe57829350815260016020522054815190815261251c6020820152f35b5050517ebfc921000000000000000000000000000000000000000000000000000000008152fd5b5050517f4763c4eb000000000000000000000000000000000000000000000000000000008152fd5b80fd5b5050346100b957816003193601126100b9576020906001600160a01b03600354169051908152f35b849250346102075782600319360112610207576001600160a01b036002541633036104cf578260ff19600554166005557f8aecbeb9f7203ec3dc62d2b9d20d5bcd70fe3808addcd647fc09e8b648441d928180a180f35b6282b42960e81b8152fd5b600435906001600160a01b03821682036104f057565b600080fd5b6040519060c0820182811067ffffffffffffffff82111761051557604052565b7f4e487b7100000000000000000000000000000000000000000000000000000000600052604160045260246000fdfea2646970667358221220d6e031ae748393ede248bc0cb90eba34e68b2492bf44cf99043ebbc24d66daf364736f6c63430008130033","linkReferences":{}},"methodIdentifiers":{"activateEmergencyStop()":"985957ab","admin()":"f851a440","aggregator()":"245a7bfc","circuitBreakerThreshold()":"7d0b0a34","configureFeed(address,address,uint8,uint256,uint256,uint256)":"c86e4dcc","deactivateEmergencyStop()":"02a517ab","emergencyStop()":"63a599a4","feedConfigs(address)":"442082fa","getPrice(address)":"41976e09","lastGoodPrice(address)":"8429bbf6"},"id":0}