{"abi":[{"type":"constructor","inputs":[{"name":"_governanceToken","type":"address","internalType":"address"},{"name":"_timelock","type":"address","internalType":"address"},{"name":"_guardian","type":"address","internalType":"address"}],"stateMutability":"nonpayable"},{"type":"function","name":"PROPOSAL_THRESHOLD","inputs":[],"outputs":[{"name":"","type":"uint256","internalType":"uint256"}],"stateMutability":"view"},{"type":"function","name":"QUORUM_VOTES","inputs":[],"outputs":[{"name":"","type":"uint256","internalType":"uint256"}],"stateMutability":"view"},{"type":"function","name":"VOTING_DELAY","inputs":[],"outputs":[{"name":"","type":"uint256","internalType":"uint256"}],"stateMutability":"view"},{"type":"function","name":"VOTING_PERIOD","inputs":[],"outputs":[{"name":"","type":"uint256","internalType":"uint256"}],"stateMutability":"view"},{"type":"function","name":"cancel","inputs":[{"name":"proposalId","type":"uint256","internalType":"uint256"}],"outputs":[],"stateMutability":"nonpayable"},{"type":"function","name":"castVote","inputs":[{"name":"proposalId","type":"uint256","internalType":"uint256"},{"name":"support","type":"uint8","internalType":"uint8"}],"outputs":[],"stateMutability":"nonpayable"},{"type":"function","name":"castVoteBySig","inputs":[{"name":"proposalId","type":"uint256","internalType":"uint256"},{"name":"support","type":"uint8","internalType":"uint8"},{"name":"v","type":"uint8","internalType":"uint8"},{"name":"r","type":"bytes32","internalType":"bytes32"},{"name":"s","type":"bytes32","internalType":"bytes32"}],"outputs":[],"stateMutability":"nonpayable"},{"type":"function","name":"castVoteWithReason","inputs":[{"name":"proposalId","type":"uint256","internalType":"uint256"},{"name":"support","type":"uint8","internalType":"uint8"},{"name":"reason","type":"string","internalType":"string"}],"outputs":[],"stateMutability":"nonpayable"},{"type":"function","name":"execute","inputs":[{"name":"proposalId","type":"uint256","internalType":"uint256"}],"outputs":[],"stateMutability":"payable"},{"type":"function","name":"getActions","inputs":[{"name":"proposalId","type":"uint256","internalType":"uint256"}],"outputs":[{"name":"targets","type":"address[]","internalType":"address[]"},{"name":"values","type":"uint256[]","internalType":"uint256[]"},{"name":"signatures","type":"string[]","internalType":"string[]"},{"name":"calldatas","type":"bytes[]","internalType":"bytes[]"}],"stateMutability":"view"},{"type":"function","name":"getReceipt","inputs":[{"name":"proposalId","type":"uint256","internalType":"uint256"},{"name":"voter","type":"address","internalType":"address"}],"outputs":[{"name":"","type":"tuple","internalType":"struct GovernorAlpha.Receipt","components":[{"name":"hasVoted","type":"bool","internalType":"bool"},{"name":"support","type":"uint8","internalType":"uint8"},{"name":"votes","type":"uint256","internalType":"uint256"}]}],"stateMutability":"view"},{"type":"function","name":"governanceToken","inputs":[],"outputs":[{"name":"","type":"address","internalType":"contract GovernanceToken"}],"stateMutability":"view"},{"type":"function","name":"guardian","inputs":[],"outputs":[{"name":"","type":"address","internalType":"address"}],"stateMutability":"view"},{"type":"function","name":"latestProposalIds","inputs":[{"name":"","type":"address","internalType":"address"}],"outputs":[{"name":"","type":"uint256","internalType":"uint256"}],"stateMutability":"view"},{"type":"function","name":"name","inputs":[],"outputs":[{"name":"","type":"string","internalType":"string"}],"stateMutability":"view"},{"type":"function","name":"proposalCount","inputs":[],"outputs":[{"name":"","type":"uint256","internalType":"uint256"}],"stateMutability":"view"},{"type":"function","name":"proposals","inputs":[{"name":"","type":"uint256","internalType":"uint256"}],"outputs":[{"name":"id","type":"uint256","internalType":"uint256"},{"name":"proposer","type":"address","internalType":"address"},{"name":"eta","type":"uint256","internalType":"uint256"},{"name":"startBlock","type":"uint256","internalType":"uint256"},{"name":"endBlock","type":"uint256","internalType":"uint256"},{"name":"forVotes","type":"uint256","internalType":"uint256"},{"name":"againstVotes","type":"uint256","internalType":"uint256"},{"name":"abstainVotes","type":"uint256","internalType":"uint256"},{"name":"canceled","type":"bool","internalType":"bool"},{"name":"executed","type":"bool","internalType":"bool"}],"stateMutability":"view"},{"type":"function","name":"propose","inputs":[{"name":"targets","type":"address[]","internalType":"address[]"},{"name":"values","type":"uint256[]","internalType":"uint256[]"},{"name":"signatures","type":"string[]","internalType":"string[]"},{"name":"calldatas","type":"bytes[]","internalType":"bytes[]"},{"name":"description","type":"string","internalType":"string"}],"outputs":[{"name":"","type":"uint256","internalType":"uint256"}],"stateMutability":"nonpayable"},{"type":"function","name":"queue","inputs":[{"name":"proposalId","type":"uint256","internalType":"uint256"}],"outputs":[],"stateMutability":"nonpayable"},{"type":"function","name":"state","inputs":[{"name":"proposalId","type":"uint256","internalType":"uint256"}],"outputs":[{"name":"","type":"uint8","internalType":"enum GovernorAlpha.ProposalState"}],"stateMutability":"view"},{"type":"function","name":"timelock","inputs":[],"outputs":[{"name":"","type":"address","internalType":"address"}],"stateMutability":"view"},{"type":"event","name":"ProposalCanceled","inputs":[{"name":"id","type":"uint256","indexed":false,"internalType":"uint256"}],"anonymous":false},{"type":"event","name":"ProposalCreated","inputs":[{"name":"id","type":"uint256","indexed":false,"internalType":"uint256"},{"name":"proposer","type":"address","indexed":false,"internalType":"address"},{"name":"targets","type":"address[]","indexed":false,"internalType":"address[]"},{"name":"values","type":"uint256[]","indexed":false,"internalType":"uint256[]"},{"name":"signatures","type":"string[]","indexed":false,"internalType":"string[]"},{"name":"calldatas","type":"bytes[]","indexed":false,"internalType":"bytes[]"},{"name":"startBlock","type":"uint256","indexed":false,"internalType":"uint256"},{"name":"endBlock","type":"uint256","indexed":false,"internalType":"uint256"},{"name":"description","type":"string","indexed":false,"internalType":"string"}],"anonymous":false},{"type":"event","name":"ProposalExecuted","inputs":[{"name":"id","type":"uint256","indexed":false,"internalType":"uint256"}],"anonymous":false},{"type":"event","name":"ProposalQueued","inputs":[{"name":"id","type":"uint256","indexed":false,"internalType":"uint256"},{"name":"eta","type":"uint256","indexed":false,"internalType":"uint256"}],"anonymous":false},{"type":"event","name":"VoteCast","inputs":[{"name":"voter","type":"address","indexed":true,"internalType":"address"},{"name":"proposalId","type":"uint256","indexed":false,"internalType":"uint256"},{"name":"support","type":"uint8","indexed":false,"internalType":"uint8"},{"name":"votes","type":"uint256","indexed":false,"internalType":"uint256"},{"name":"reason","type":"string","indexed":false,"internalType":"string"}],"anonymous":false},{"type":"error","name":"AlreadyVoted","inputs":[]},{"type":"error","name":"BelowProposalThreshold","inputs":[{"name":"votes","type":"uint256","internalType":"uint256"},{"name":"required","type":"uint256","internalType":"uint256"}]},{"type":"error","name":"InvalidProposalId","inputs":[]},{"type":"error","name":"InvalidVoteType","inputs":[]},{"type":"error","name":"NoActions","inputs":[]},{"type":"error","name":"ProposalInfoArityMismatch","inputs":[]},{"type":"error","name":"ProposalNotActive","inputs":[]},{"type":"error","name":"ProposalNotQueued","inputs":[]},{"type":"error","name":"ProposalNotSucceeded","inputs":[]},{"type":"error","name":"ProposerHasActiveProp","inputs":[]},{"type":"error","name":"TooManyActions","inputs":[]}],"bytecode":{"object":"0x608034620000ab57601f62001d6638819003918201601f19168301916001600160401b03831184841017620000b057808492606094604052833981010312620000ab576200004d81620000c6565b906200006a60406200006260208401620000c6565b9201620000c6565b60018060a01b0380928160018060a01b031995168560005416176000551683600254161760025516906001541617600155604051611c8a9081620000dc8239f35b600080fd5b634e487b7160e01b600052604160045260246000fd5b51906001600160a01b0382168203620000ab5756fe608080604052600436101561001357600080fd5b60003560e01c908163013cf08b146114ee5750806306fdde03146114be57806317977c6114611480578063328dd982146112ac5780633bccf4fd146111075780633e4f49e6146110d857806340e58ee514610f5e578063452a932014610f355780635678138814610eff578063671dd27514610eda5780637b3c71d314610e6d578063a6c2660314610e48578063b1610d7e14610e2b578063d33219b414610e02578063d6159fe514610de6578063da35c66414610dc8578063da95691a1461049b578063ddf0b009146103f3578063e23a9a521461034d578063f96dae0a146103245763fe0d94c11461010657600080fd5b60208060031936011261031f57600435906101208261197d565b6008811015610309576005036102f75781600052600481526040600020600c810161010061ff001982541617905560006003908183019160048401926006600586019501925b81548110156102cb5760008087876101e16101ce6101e88a6101d56101c08a6101b9818f8f82610199816101ae936118b9565b905490841b1c6001600160a01b03169c6118b9565b9054911b1c9a6118b9565b50936118b9565b5091604051948580926118e7565b03846115db565b604051938480926118e7565b03836115db565b8c8151918215871461028657505050915b8b83519301915af13d15610281573d610211816115fc565b9061021f60405192836115db565b81526000893d92013e5b1561023c57610237906117e2565b610166565b60405162461bcd60e51b815260048101889052601e60248201527f5472616e73616374696f6e20657865637574696f6e20726576657274656400006044820152606490fd5b610229565b6102c5928263ffffffff60e01b92012016604051938491838301526102b5815180926024958686019101611651565b81010360048101845201826115db565b916101f9565b7f712ae1383f79ac853f8d882153778e0260ef8f03b504e2866e0593e04d2b291f8789604051908152a1005b60405163599fb1a360e01b8152600490fd5b634e487b7160e01b600052602160045260246000fd5b600080fd5b3461031f57600036600319011261031f576000546040516001600160a01b039091168152602090f35b3461031f57604036600319011261031f576024356001600160a01b0381169081900361031f576000604080516103828161158a565b82815282602082015201526004356000526004602052600d60406000200190600052602052606060406000206040516103ba8161158a565b60ff82546040600183831615159586865284602087019460081c1684520154930192835260405193845251166020830152516040820152f35b3461031f57602036600319011261031f576004356104108161197d565b6008811015610309576004036104895780600052600460205260406000206202a30042019182421161047357827f9a2e42fd6722813d69113e7d0079d3d940171428df7373df9c7f7617cfda2892936002604094015582519182526020820152a1005b634e487b7160e01b600052601160045260246000fd5b60405163feace5cd60e01b8152600490fd5b3461031f5760a036600319011261031f576004356001600160401b03811161031f573660238201121561031f578060040135906104d782611776565b906104e560405192836115db565b82825260208201906024829460051b8201019036821161031f57602401915b818310610da8575050506024356001600160401b03811161031f573660238201121561031f5780600401359161053983611776565b9161054760405193846115db565b838352602083016024819560051b8301019136831161031f57602401905b828210610d9857505050604435916001600160401b03831161031f573660238401121561031f5782600401359261059b84611776565b906105a960405192836115db565b84825260208201906024829660051b8201019036821161031f5760248101925b828410610d6a57505050506001600160401b036064351161031f5736602360643501121561031f57606435600401359361060285611776565b9461061060405196876115db565b8086526020860180913660248260051b60643501011161031f57602460643501915b60248260051b60643501018310610d1e575050506084356001600160401b03811161031f576106659036906004016117c4565b6000549092906001600160a01b0316436000198101116104735760405163782d6fe160e01b81523360048201526000194301602482015290602090829060449082905afa908115610d1257600091610ce0575b5069152d02c7e14af6800000808210610cc257505085518551811490811591610cb6575b8115610caa575b50610c9857855115610c8657600a865111610c745733600052600560205260406000205480610c31575b506107196003546117e2565b9788600355886000526004602052604060002099898b5560018b01336bffffffffffffffffffffffff60a01b8254161790558751906001600160401b038211610a1b57600160401b8211610a1b5760038c019061077b83835481855584611808565b90600052602060002060005b838110610c1457505050508551906001600160401b038211610a1b57600160401b8211610a1b5760048b01906107c283835481855584611808565b90600052602060002060005b838110610c005750505050835190600160401b8211610a1b5760058a01548260058c0155808310610b87575b509060058a016000526020600020916000905b828210610aaa5750505050855190600160401b8211610a1b5760068901548260068b0155808310610a31575b5090600689016000526020600020916000905b828210610938575050505060014301908143116104735760078801938285556143814301809311610473576109147f7d84a6263ae0d98d3329bd7b46bb4e8d6f98cd35a7adb45c274c8b7fd5ebd5e09761090661092d966108f88c99600860209f019889553360005260058f528a604060002055549754956108ea6040519c8d9c8d5260208d903391015260408d61012091829101528d0190611699565b908b820360608d01526116d6565b9089820360808b015261170a565b9087820360a089015261170a565b9260c086015260e0850152838203610100850152611674565b0390a1604051908152f35b80518051906001600160401b038211610a1b5761095f82610959885461182d565b88611867565b602090601f83116001146109ab5792826001949360209386956000926109a0575b5050600019600383901b1c191690841b1787555b0194019101909261084c565b015190503880610980565b908660005260206000209160005b601f1985168110610a03575083602093600196938796938794601f198116106109ea575b505050811b018755610994565b015160001960f88460031b161c191690553880806109dd565b919260206001819286850151815501940192016109b9565b634e487b7160e01b600052604160045260246000fd5b60068a016000526020600020908382015b8183018110610a52575050610839565b80610a5f6001925461182d565b80610a6c575b5001610a42565b601f908181118414610a85575050600081555b8d610a65565b610aa160009284845260208420920160051c82018583016117f1565b81835555610a7f565b80518051906001600160401b038211610a1b57610acb82610959885461182d565b602090601f8311600114610b17579282600194936020938695600092610b0c575b5050600019600383901b1c191690841b1787555b0194019101909261080d565b015190503880610aec565b908660005260206000209160005b601f1985168110610b6f575083602093600196938796938794601f19811610610b56575b505050811b018755610b00565b015160001960f88460031b161c19169055388080610b49565b91926020600181928685015181550194019201610b25565b60058b016000526020600020908382015b8183018110610ba85750506107fa565b80610bb56001925461182d565b80610bc2575b5001610b98565b601f908181118414610bdb575050600081555b8e610bbb565b610bf760009284845260208420920160051c82018583016117f1565b81835555610bd5565b6001906020845194019381840155016107ce565b82516001600160a01b031681830155602090920191600101610787565b610c3a9061197d565b60088110156103095760018114908115610c6b575b50610c5a578961070d565b60405162e745d360e31b8152600490fd5b9050158a610c4f565b6040516308e3b1eb60e11b8152600490fd5b604051636ed2248360e01b8152600490fd5b60405163ccb0ce3f60e01b8152600490fd5b9050875114158a6106e3565b855181141591506106dc565b604492506040519163cd2c13e160e01b835260048301526024820152fd5b90506020813d602011610d0a575b81610cfb602093836115db565b8101031261031f57518a6106b8565b3d9150610cee565b6040513d6000823e3d90fd5b8235906001600160401b03821161031f57366043836064350101121561031f576024916020918291610d5d90369060643501808701359060440161178d565b8152019301929050610632565b6001600160401b0384351161031f5760208091610d8d36602488358701016117c4565b8152019301926105c9565b8135815260209182019101610565565b82356001600160a01b038116810361031f57815260209283019201610504565b3461031f57600036600319011261031f576020600354604051908152f35b3461031f57600036600319011261031f57602060405160018152f35b3461031f57600036600319011261031f576002546040516001600160a01b039091168152602090f35b3461031f57600036600319011261031f5760206040516143808152f35b3461031f57600036600319011261031f57602060405169152d02c7e14af68000008152f35b3461031f57606036600319011261031f57610e86611766565b604435906001600160401b0380831161031f573660238401121561031f57826004013590811161031f57366024828501011161031f57610ed892610ece91602436920161178d565b9060043533611a53565b005b3461031f57600036600319011261031f5760206040516954b40b1f852bda0000008152f35b3461031f57604036600319011261031f57610ed8610f1b611766565b60405190610f28826115c0565b6000825260043533611a53565b3461031f57600036600319011261031f576001546040516001600160a01b039091168152602090f35b3461031f5760208060031936011261031f5760043590811580156110cd575b6110bb57816000526004815260406000209160018060a01b0380600154163314908115611019575b5015610fe457600c7f789cf55be980739dad1d0699b93b58e806b51c9d96619bfa8fe0a28abaa7b30c9301600160ff19825416179055604051908152a1005b60405162461bcd60e51b815260048101839052600d60248201526c10d85b9b9bdd0818d85b98d95b609a1b6044820152606490fd5b809150600054169060018501541660001943014381116104735760405163782d6fe160e01b81526001600160a01b039290921660048301526024820152908390829060449082905afa8015610d1257600090611084575b69152d02c7e14af680000091501084610fa5565b508281813d83116110b4575b61109a81836115db565b8101031261031f5769152d02c7e14af68000009051611070565b503d611090565b604051630992f7ad60e01b8152600490fd5b506003548211610f7d565b3461031f57602036600319011261031f576110f460043561197d565b6040516008821015610309576020918152f35b3461031f5760a036600319011261031f57600435611123611766565b906044359160ff831680930361031f5761113b611617565b92835160208095012060405190858201907f8cad95687ba82c2ce50e74f7b754645e5117c3a5bec8151c0726d5857980a866825260408301524660608301523060808301526080825260a08201928284106001600160401b03851117610a1b57836000936080938996604052815190209160c08201917f150214d74d59b7d1e90c73fc22ef3d991dd0a76b046543d4d80ab92d2a50328f83528960e082015261010060ff8a16910152606081526111f1816115a5565b519020604051908682019261190160f01b8452602283015260428201526042815261121b816115a5565b51902090604051918252848201526064356040820152608435606082015282805260015afa15610d1257600051916001600160a01b0383161561127357610ed893506040519261126a846115c0565b60008452611a53565b60405162461bcd60e51b8152600481018590526011602482015270496e76616c6964207369676e617475726560781b6044820152606490fd5b3461031f5760208060031936011261031f576004356000526004815260406000209060038201906004830192600660058201910191604051808583829754938481520190600052836000209260005b8582821061146157505050611312925003856115db565b604051808683829854938481520190600052836000209260005b8582821061144b57505050611343925003866115db565b815461134e81611776565b9261135c60405194856115db565b8184526000908152828120838086015b848410611425575050505050825461138381611776565b9361139160405195866115db565b81855260009081528281208386015b8383106113fa57506113cd876113f6886113e8896113da8a8f60405198899860808a5260808a0190611699565b91888303908901526116d6565b90858203604087015261170a565b90838203606085015261170a565b0390f35b60018581926040516114178161141081896118e7565b03826115db565b8152019201920191906113a0565b600191829160405161143b8161141081896118e7565b815201920192019190849061136c565b855484526001958601958b95509301920161132c565b85546001600160a01b031684526001958601958a9550930192016112fb565b3461031f57602036600319011261031f576004356001600160a01b0381169081900361031f5760005260056020526020604060002054604051908152f35b3461031f57600036600319011261031f576113f66114da611617565b604051918291602083526020830190611674565b3461031f57602036600319011261031f5761014090600435600052600460205260ff604060002080549060018060a01b0360018201541660028201546007830154600884015490600985015492600a86015494600c600b880154970154978a5260208a015260408901526060880152608087015260a086015260c085015260e0840152818116151561010084015260081c161515610120820152f35b606081019081106001600160401b03821117610a1b57604052565b608081019081106001600160401b03821117610a1b57604052565b602081019081106001600160401b03821117610a1b57604052565b90601f801991011681019081106001600160401b03821117610a1b57604052565b6001600160401b038111610a1b57601f01601f191660200190565b60405190604082018281106001600160401b03821117610a1b57604052600e82526d476f7665726e6f7220416c70686160901b6020830152565b60005b8381106116645750506000910152565b8181015183820152602001611654565b9060209161168d81518092818552858086019101611651565b601f01601f1916010190565b90815180825260208080930193019160005b8281106116b9575050505090565b83516001600160a01b0316855293810193928101926001016116ab565b90815180825260208080930193019160005b8281106116f6575050505090565b8351855293810193928101926001016116e8565b908082519081815260208091019281808460051b8301019501936000915b8483106117385750505050505090565b9091929394958480611756600193601f198682030187528a51611674565b9801930193019194939290611728565b6024359060ff8216820361031f57565b6001600160401b038111610a1b5760051b60200190565b929192611799826115fc565b916117a760405193846115db565b82948184528183011161031f578281602093846000960137010152565b9080601f8301121561031f578160206117df9335910161178d565b90565b60001981146104735760010190565b8181106117fc575050565b600081556001016117f1565b9181811061181557505050565b61182b92600052602060002091820191016117f1565b565b90600182811c9216801561185d575b602083101461184757565b634e487b7160e01b600052602260045260246000fd5b91607f169161183c565b9190601f811161187657505050565b61182b926000526020600020906020601f840160051c830193106118a2575b601f0160051c01906117f1565b9091508190611895565b9190820180921161047357565b80548210156118d15760005260206000200190600090565b634e487b7160e01b600052603260045260246000fd5b90600092918054916118f88361182d565b91828252600193848116908160001461195a575060011461191a575b50505050565b90919394506000526020928360002092846000945b838610611946575050505001019038808080611914565b80548587018301529401938590820161192f565b9294505050602093945060ff191683830152151560051b01019038808080611914565b80158015611a48575b6110bb5760005260046020526040600020600c8101549060ff82166000146119af575050600290565b600781015443116119c1575050600090565b600881015443116119d3575050600190565b6009810154600a820154811190811591611a34575b50156119f5575050600390565b600201549081611a06575050600490565b60081c60ff1615611a175750600790565b621275008101809111610473574210611a2f57600690565b600590565b6954b40b1f852bda000000915010386119e8565b506003548111611986565b92611a5d8261197d565b600881101561030957600103611c425760ff83169260028411611c3057600090838252602094600486526040918284209060018060a01b0391828a16998a8752600d82018a528587209360ff855416611c1f5787546007840154885163782d6fe160e01b81526001600160a01b0394909416600485015260248401528b9183916044918391165afa968715611c14578097611bba575b50509460017fb8e138887d0aa13bab447e82de9d5c1777041ecd21ca36ba824ff1e6c07ddda49998979593818694611b7499859815600014611b7957600a01611b3d8682546118ac565b90555b61ff0083549160081b169061ffff191617178155015581519687968752860152840152608060608401526080830190611674565b0390a2565b868303611b9557600901611b8e8682546118ac565b9055611b40565b60028714611ba4575b50611b40565b600b01611bb28682546118ac565b905538611b9e565b9091939296508982813d8311611c0d575b611bd581836115db565b81010312611c0a57505194909160017fb8e138887d0aa13bab447e82de9d5c1777041ecd21ca36ba824ff1e6c07ddda4611af3565b80fd5b503d611bcb565b8651903d90823e3d90fd5b8651637c9a1cf960e01b8152600490fd5b604051638eed55d160e01b8152600490fd5b604051637becc13f60e01b8152600490fdfea26469706673582212204a7e2aece1d2fc790f1b8b2e23103dbc5a5b5740a42c145989a995f41055513864736f6c63430008130033","linkReferences":{}},"methodIdentifiers":{"PROPOSAL_THRESHOLD()":"a6c26603","QUORUM_VOTES()":"671dd275","VOTING_DELAY()":"d6159fe5","VOTING_PERIOD()":"b1610d7e","cancel(uint256)":"40e58ee5","castVote(uint256,uint8)":"56781388","castVoteBySig(uint256,uint8,uint8,bytes32,bytes32)":"3bccf4fd","castVoteWithReason(uint256,uint8,string)":"7b3c71d3","execute(uint256)":"fe0d94c1","getActions(uint256)":"328dd982","getReceipt(uint256,address)":"e23a9a52","governanceToken()":"f96dae0a","guardian()":"452a9320","latestProposalIds(address)":"17977c61","name()":"06fdde03","proposalCount()":"da35c664","proposals(uint256)":"013cf08b","propose(address[],uint256[],string[],bytes[],string)":"da95691a","queue(uint256)":"ddf0b009","state(uint256)":"3e4f49e6","timelock()":"d33219b4"},"id":1}