{"abi":[{"type":"constructor","inputs":[],"stateMutability":"nonpayable"},{"type":"function","name":"addOracle","inputs":[{"name":"oracle","type":"address","internalType":"address"},{"name":"weight","type":"uint256","internalType":"uint256"}],"outputs":[],"stateMutability":"nonpayable"},{"type":"function","name":"admin","inputs":[],"outputs":[{"name":"","type":"address","internalType":"address"}],"stateMutability":"view"},{"type":"function","name":"aggregatedPrices","inputs":[{"name":"","type":"address","internalType":"address"}],"outputs":[{"name":"price","type":"uint256","internalType":"uint256"},{"name":"timestamp","type":"uint256","internalType":"uint256"},{"name":"deviation","type":"uint256","internalType":"uint256"},{"name":"confidence","type":"uint256","internalType":"uint256"},{"name":"sources","type":"uint256","internalType":"uint256"}],"stateMutability":"view"},{"type":"function","name":"checkHeartbeat","inputs":[{"name":"token","type":"address","internalType":"address"}],"outputs":[],"stateMutability":"nonpayable"},{"type":"function","name":"defaultHeartbeat","inputs":[],"outputs":[{"name":"","type":"uint256","internalType":"uint256"}],"stateMutability":"view"},{"type":"function","name":"getActiveSources","inputs":[{"name":"token","type":"address","internalType":"address"}],"outputs":[{"name":"","type":"uint256","internalType":"uint256"}],"stateMutability":"view"},{"type":"function","name":"getOracleData","inputs":[{"name":"oracle","type":"address","internalType":"address"}],"outputs":[{"name":"","type":"tuple","internalType":"struct PriceAggregator.OracleData","components":[{"name":"oracle","type":"address","internalType":"address"},{"name":"weight","type":"uint256","internalType":"uint256"},{"name":"lastUpdate","type":"uint256","internalType":"uint256"},{"name":"successfulUpdates","type":"uint256","internalType":"uint256"},{"name":"failedUpdates","type":"uint256","internalType":"uint256"},{"name":"isActive","type":"bool","internalType":"bool"}]}],"stateMutability":"view"},{"type":"function","name":"getPrice","inputs":[{"name":"token","type":"address","internalType":"address"}],"outputs":[{"name":"","type":"uint256","internalType":"uint256"},{"name":"","type":"uint256","internalType":"uint256"}],"stateMutability":"view"},{"type":"function","name":"getPriceWithDeviation","inputs":[{"name":"token","type":"address","internalType":"address"}],"outputs":[{"name":"price","type":"uint256","internalType":"uint256"},{"name":"deviation","type":"uint256","internalType":"uint256"},{"name":"confidence","type":"uint256","internalType":"uint256"}],"stateMutability":"view"},{"type":"function","name":"heartbeat","inputs":[{"name":"","type":"address","internalType":"address"}],"outputs":[{"name":"","type":"uint256","internalType":"uint256"}],"stateMutability":"view"},{"type":"function","name":"maxDeviation","inputs":[],"outputs":[{"name":"","type":"uint256","internalType":"uint256"}],"stateMutability":"view"},{"type":"function","name":"minOracles","inputs":[],"outputs":[{"name":"","type":"uint256","internalType":"uint256"}],"stateMutability":"view"},{"type":"function","name":"oracleList","inputs":[{"name":"","type":"uint256","internalType":"uint256"}],"outputs":[{"name":"","type":"address","internalType":"address"}],"stateMutability":"view"},{"type":"function","name":"oracles","inputs":[{"name":"","type":"address","internalType":"address"}],"outputs":[{"name":"oracle","type":"address","internalType":"address"},{"name":"weight","type":"uint256","internalType":"uint256"},{"name":"lastUpdate","type":"uint256","internalType":"uint256"},{"name":"successfulUpdates","type":"uint256","internalType":"uint256"},{"name":"failedUpdates","type":"uint256","internalType":"uint256"},{"name":"isActive","type":"bool","internalType":"bool"}],"stateMutability":"view"},{"type":"function","name":"priceFeeds","inputs":[{"name":"","type":"address","internalType":"address"},{"name":"","type":"address","internalType":"address"}],"outputs":[{"name":"price","type":"uint256","internalType":"uint256"},{"name":"timestamp","type":"uint256","internalType":"uint256"},{"name":"confidence","type":"uint256","internalType":"uint256"},{"name":"source","type":"address","internalType":"address"}],"stateMutability":"view"},{"type":"function","name":"removeOracle","inputs":[{"name":"oracle","type":"address","internalType":"address"}],"outputs":[],"stateMutability":"nonpayable"},{"type":"function","name":"setHeartbeat","inputs":[{"name":"token","type":"address","internalType":"address"},{"name":"duration","type":"uint256","internalType":"uint256"}],"outputs":[],"stateMutability":"nonpayable"},{"type":"function","name":"submitPrice","inputs":[{"name":"token","type":"address","internalType":"address"},{"name":"price","type":"uint256","internalType":"uint256"},{"name":"confidence","type":"uint256","internalType":"uint256"}],"outputs":[],"stateMutability":"nonpayable"},{"type":"function","name":"updateOracleWeight","inputs":[{"name":"oracle","type":"address","internalType":"address"},{"name":"newWeight","type":"uint256","internalType":"uint256"}],"outputs":[],"stateMutability":"nonpayable"},{"type":"event","name":"HeartbeatMissed","inputs":[{"name":"token","type":"address","indexed":true,"internalType":"address"},{"name":"oracle","type":"address","indexed":true,"internalType":"address"}],"anonymous":false},{"type":"event","name":"OracleAdded","inputs":[{"name":"oracle","type":"address","indexed":true,"internalType":"address"},{"name":"weight","type":"uint256","indexed":false,"internalType":"uint256"}],"anonymous":false},{"type":"event","name":"OracleRemoved","inputs":[{"name":"oracle","type":"address","indexed":true,"internalType":"address"}],"anonymous":false},{"type":"event","name":"OracleWeightUpdated","inputs":[{"name":"oracle","type":"address","indexed":true,"internalType":"address"},{"name":"newWeight","type":"uint256","indexed":false,"internalType":"uint256"}],"anonymous":false},{"type":"event","name":"OutlierDetected","inputs":[{"name":"token","type":"address","indexed":true,"internalType":"address"},{"name":"oracle","type":"address","indexed":true,"internalType":"address"},{"name":"price","type":"uint256","indexed":false,"internalType":"uint256"}],"anonymous":false},{"type":"event","name":"PriceAggregated","inputs":[{"name":"token","type":"address","indexed":true,"internalType":"address"},{"name":"price","type":"uint256","indexed":false,"internalType":"uint256"},{"name":"confidence","type":"uint256","indexed":false,"internalType":"uint256"}],"anonymous":false},{"type":"event","name":"PriceUpdated","inputs":[{"name":"token","type":"address","indexed":true,"internalType":"address"},{"name":"oracle","type":"address","indexed":true,"internalType":"address"},{"name":"price","type":"uint256","indexed":false,"internalType":"uint256"}],"anonymous":false},{"type":"error","name":"ExcessiveDeviation","inputs":[]},{"type":"error","name":"InsufficientOracles","inputs":[]},{"type":"error","name":"InvalidPrice","inputs":[]},{"type":"error","name":"OracleNotActive","inputs":[]},{"type":"error","name":"StalePrice","inputs":[]},{"type":"error","name":"Unauthorized","inputs":[]}],"bytecode":{"object":"0x608080604052346100395760036006556101f4600755610e10600855600580546001600160a01b03191633179055611475908161003f8239f35b600080fdfe6080604052600436101561001257600080fd5b60003560e01c80630cf42dbb146110a2578063239aad0d146110615780632a1bab73146110435780632ef6239114610f2f5780632f1605fc14610eeb57806341976e0914610e545780634805e25b14610d85578063753622d314610c475780637e38d20414610c29578063860db6ed14610bc357806389d3607a14610ba557806391d6614914610a4f578063a75879f5146109c3578063addd50991461094a578063b7a1bb1514610910578063c8b0bf181461026f578063f851a44014610248578063f90c6906146101ce5763fdc85fc4146100ed57600080fd5b346101c95760203660031901126101c957610106611179565b6001600160a01b03908160055416330361019f571680600052600160205260ff600560406000200154161561017557806000526001602052600560406000200160ff1981541690557f9c8e7d83025bef8a04c664b2f753f64b8814bdb7e27291d7e50935f18cc3c712600080a2005b60046040517f4db6f8b9000000000000000000000000000000000000000000000000000000008152fd5b60046040517f82b42900000000000000000000000000000000000000000000000000000000008152fd5b600080fd5b346101c95760403660031901126101c9576101e7611179565b6024356001600160a01b03908181168091036101c95781608093166000526000602052604060002090600052602052604060002090815491600181015491600360028301549201541691604051938452602084015260408301526060820152f35b346101c95760003660031901126101c95760206001600160a01b0360055416604051908152f35b346101c95760603660031901126101c957610288611179565b33600052600160205260ff600560406000200154161561019f57602435156108e7576102b26111fc565b60243581526001600160a01b0360036020830142815260443560408501526040606085019433865284871660005260006020528160002033600052602052816000209281518455516001840155015160028201550191511673ffffffffffffffffffffffffffffffffffffffff1982541617905560016020526003604060002042600282015501610343815461123c565b9055604051602435815233907fb71c154260e8508e211e2ace194becba2c6d7e727c3ed292fe4787458969cd1060206001600160a01b03851692a36004549061038b82611270565b61039483611270565b906000916001600160a01b03841660005260036020526040600020548015156000146108de575b6000905b8682106107ef57505060065483106107c5576103db83836112f7565b91836000805b82811061073d57506103fb916103f6916112d7565b6113f5565b80612710810204612710148115171561061f578361271061041c92026112d7565b92600754808511610635575b5050600080916000935b8685106105c557505061044592506112d7565b936000809160005b81811061050657877f0edb4a6828f0f94ce21f135a11d858bffa5f5a5f6bbef7cac90f58d09aac43d360406001600160a01b038a8a8a8a8a81156104fa57600491610497916112d7565b925b6104a161121c565b9289845260208401904282528885019081526060850191868352608086019384528888166000526002602052896000209551865551600186015551600285015551600384015551910155835195865260208601521692a2005b50506004600092610499565b6001600160a01b036105178261118f565b90549060031b1c1680600052600160205260ff6005604060002001541615610597576001600160a01b038816600052600060205260406000209060005260205260406000206105646111fc565b8154815260018201549081602082015260606001600160a01b0360036002860154958660408601520154169101526105a6575b506105a19061123c565b61044d565b6105b86105be916105a19396956112ca565b9361123c565b9390610597565b90916105d185846112b6565b516105dc86846112b6565b519081810291818304149015171561061f576105fe61061091610616936112ca565b9461060987856112b6565b51906112ca565b9461123c565b93929190610432565b634e487b7160e01b600052601160045260246000fd5b60005b8681106106455750610428565b8261065082866112b6565b5111156106fe5761066b8361066583876112b6565b5161124b565b9081612710810204612710148215171561061f57826106918561271061069b95026112d7565b116106a05761123c565b610638565b6001600160a01b036106b18261118f565b90549060031b1c166106c382876112b6565b516040519081527f9848610e7c68fb62de10b45b347711b63d2724a8211241f49499dbb8f230fb4d60206001600160a01b038d1692a361123c565b61071261070b82866112b6565b518461124b565b9081612710810204612710148215171561061f57826107388561271061069b95026112d7565b610691565b915061074982846112b6565b51908186810312600087121682878103136000881215161761061f578582038080029290600081127f80000000000000000000000000000000000000000000000000000000000000009091141661061f5786810380840514908714171561061f576107bd916107b7916112ca565b9161123c565b9085916103e1565b60046040517fd0c0a93b000000000000000000000000000000000000000000000000000000008152fd5b90936001600160a01b036108028661118f565b90549060031b1c1680600052600160205260ff60056040600020015416156108d3576001600160a01b03871660005260006020526040600020816000526020526040600020836108866108536111fc565b92805484526001600160a01b0360036001830154928360208801526002810154604088015201541660608501524261124b565b116108c75791610610916108c1935161089f83896112b6565b5260005260016020526001604060002001546108bb82876112b6565b5261123c565b906103bf565b5050936108c19061123c565b50936108c19061123c565b506008546103bb565b60046040517ebfc921000000000000000000000000000000000000000000000000000000008152fd5b346101c95760203660031901126101c9576001600160a01b03610931611179565b1660005260036020526020604060002054604051908152f35b346101c95760203660031901126101c95760c06001600160a01b038061096e611179565b16600052600160205260406000209081541690600181015490600281015460038201549060ff6005600485015494015416936040519586526020860152604085015260608401526080830152151560a0820152f35b346101c95760403660031901126101c9576109dc611179565b602435906001600160a01b03908160055416330361019f57169081600052600160205260ff60056040600020015416156101755760207f52601ef1baef2034a3af7b882829825d80c159df7dfb513cc753c40f85d7407c91836000526001825280600160406000200155604051908152a2005b346101c95760403660031901126101c957610a68611179565b602435906001600160a01b03908160055416330361019f5781169182600052600160205260ff6005604060002001541661017557610aa46111dc565b838152600560208201918383526040810160008152606082016000815260808301916000835260a08401956001875289600052600160205288604060002095511673ffffffffffffffffffffffffffffffffffffffff19865416178555516001850155516002840155516003830155516004820155019051151560ff801983541691161790556004549068010000000000000000821015610b8f577f27e42c8c186bae4ba00900be68f86e7115c0845941300729a6bf8e65f4eddbaf92610b738360016020950160045561118f565b819291549060031b9187831b921b1916179055604051908152a2005b634e487b7160e01b600052604160045260246000fd5b346101c95760003660031901126101c9576020600854604051908152f35b346101c95760203660031901126101c9576001600160a01b03610be4611179565b16600052600260205260a06040600020805490600181015490600281015460046003830154920154926040519485526020850152604084015260608301526080820152f35b346101c95760003660031901126101c9576020600654604051908152f35b346101c9576020806003193601126101c957610c61611179565b6001600160a01b039081169060005b600454811015610d83578082610c88610d229361118f565b919054600392831b1c16908160005260019081885260ff6005604060002001541615610d7b5786600052600088526040600020836000528852604060002090610ccf6111fc565b825481526060888386860154958d850196875260028101546040860152015416910152876000528852604060002054801515600014610d6e57610d1590915b514261124b565b11610d27575b505061123c565b610c70565b8160005286526004604060002001610d3f815461123c565b9055847f843d9d622d8b044878afcac94a2995e36996baa396fd9bd15393d62ce1bf7c5d600080a38580610d1b565b50610d1560085491610d0e565b50505061123c565b005b346101c95760203660031901126101c9576001600160a01b03610da6611179565b16806000526002602052604060002090610dbe61121c565b9180548352600181015491826020850152610dfb60028301549360408601948552600460038501549460608801958652015460808701524261124b565b90600052600360205260406000205410610e2a5760609251915190519060405192835260208301526040820152f35b60046040517f19abf40e000000000000000000000000000000000000000000000000000000008152fd5b346101c95760203660031901126101c9576001600160a01b03610e75611179565b168060005260026020526040600020610e8c61121c565b9181548352610ec5600183015480602086015260028401546040860152600460038501549460608701958652015460808601524261124b565b90600052600360205260406000205410610e2a5760409151905182519182526020820152f35b346101c95760403660031901126101c957610f04611179565b6001600160a01b03908160055416330361019f57166000526003602052602435604060002055600080f35b346101c9576020806003193601126101c957610f49611179565b6001600160a01b0390811660008181526003808552604082205491939091801561103957915b6004549360005b858110610f87578787604051908152f35b848885610f938461118f565b905490871b1c168060005260019081835260ff600560406000200154161561102c5790611002929186600052600083526040600020906000528252606088886040600020610fdf6111fc565b94815486528101548096860152600281015460408601520154169101524261124b565b1115611017575b6110129061123c565b610f76565b956110246110129161123c565b969050611009565b505050506110129061123c565b5060085491610f6f565b346101c95760003660031901126101c9576020600754604051908152f35b346101c95760203660031901126101c9576004356004548110156101c9576001600160a01b0361109260209261118f565b9190546040519260031b1c168152f35b346101c95760203660031901126101c95760c06110bd611179565b600060a06110c96111dc565b82815282602082015282604082015282606082015282608082015201526001600160a01b0380911660005260016020526040600020906111076111dc565b90825416918282526001810154602083019081526002820154604084019081526003830154916060850192835260a060ff6005600487015496608089019788520154169501941515855260405195865251602086015251604085015251606084015251608083015251151560a0820152f35b600435906001600160a01b03821682036101c957565b6004548110156111c65760046000527f8a35acfbc15ff81a39ae7d344fd709f28e8600b4aa8c65c6b64bfe7fe36bd19b0190600090565b634e487b7160e01b600052603260045260246000fd5b6040519060c0820182811067ffffffffffffffff821117610b8f57604052565b604051906080820182811067ffffffffffffffff821117610b8f57604052565b6040519060a0820182811067ffffffffffffffff821117610b8f57604052565b600019811461061f5760010190565b9190820391821161061f57565b67ffffffffffffffff8111610b8f5760051b60200190565b9061127a82611258565b60405190601f1990601f018116820167ffffffffffffffff811183821017610b8f576040528382526112ac8294611258565b0190602036910137565b80518210156111c65760209160051b010190565b9190820180921161061f57565b81156112e1570490565b634e487b7160e01b600052601260045260246000fd5b9061130181611270565b9160005b8281106113d757505060005b81811061136157506001811661134f5760011c90600019820182811161061f576113499261134261060992846112b6565b51926112b6565b60011c90565b9061135d9160011c906112b6565b5190565b6001810180821161061f575b828110611383575061137e9061123c565b611311565b6113a79061139183866112b6565b5161139c82876112b6565b51106113ac5761123c565b61136d565b6113b683866112b6565b516113c182876112b6565b516113cc85886112b6565b526108bb82876112b6565b806113e56113f092846112b6565b516108bb82876112b6565b611305565b801561143957600180820180831161061f57811c90825b8383106114195750505090565b909192506114308361142b81846112d7565b6112ca565b821c919061140c565b5060009056fea2646970667358221220859501e0325653a1d9de99127da1698c863f3940fc67c04292a69288d06472b264736f6c63430008130033","linkReferences":{}},"methodIdentifiers":{"addOracle(address,uint256)":"91d66149","admin()":"f851a440","aggregatedPrices(address)":"860db6ed","checkHeartbeat(address)":"753622d3","defaultHeartbeat()":"89d3607a","getActiveSources(address)":"2ef62391","getOracleData(address)":"0cf42dbb","getPrice(address)":"41976e09","getPriceWithDeviation(address)":"4805e25b","heartbeat(address)":"b7a1bb15","maxDeviation()":"2a1bab73","minOracles()":"7e38d204","oracleList(uint256)":"239aad0d","oracles(address)":"addd5099","priceFeeds(address,address)":"f90c6906","removeOracle(address)":"fdc85fc4","setHeartbeat(address,uint256)":"2f1605fc","submitPrice(address,uint256,uint256)":"c8b0bf18","updateOracleWeight(address,uint256)":"a75879f5"},"id":1}