{"abi":[{"type":"constructor","inputs":[{"name":"_stakingToken","type":"address","internalType":"address"},{"name":"_rewardsToken","type":"address","internalType":"address"},{"name":"_rewardRate","type":"uint256","internalType":"uint256"}],"stateMutability":"nonpayable"},{"type":"function","name":"claimReward","inputs":[],"outputs":[],"stateMutability":"nonpayable"},{"type":"function","name":"earned","inputs":[{"name":"account","type":"address","internalType":"address"}],"outputs":[{"name":"","type":"uint256","internalType":"uint256"}],"stateMutability":"view"},{"type":"function","name":"exit","inputs":[],"outputs":[],"stateMutability":"nonpayable"},{"type":"function","name":"getStakedBalance","inputs":[{"name":"account","type":"address","internalType":"address"}],"outputs":[{"name":"","type":"uint256","internalType":"uint256"}],"stateMutability":"view"},{"type":"function","name":"getTotalStaked","inputs":[],"outputs":[{"name":"","type":"uint256","internalType":"uint256"}],"stateMutability":"view"},{"type":"function","name":"lastUpdateTime","inputs":[],"outputs":[{"name":"","type":"uint256","internalType":"uint256"}],"stateMutability":"view"},{"type":"function","name":"owner","inputs":[],"outputs":[{"name":"","type":"address","internalType":"address"}],"stateMutability":"view"},{"type":"function","name":"rewardPerToken","inputs":[],"outputs":[{"name":"","type":"uint256","internalType":"uint256"}],"stateMutability":"view"},{"type":"function","name":"rewardPerTokenStored","inputs":[],"outputs":[{"name":"","type":"uint256","internalType":"uint256"}],"stateMutability":"view"},{"type":"function","name":"rewardRate","inputs":[],"outputs":[{"name":"","type":"uint256","internalType":"uint256"}],"stateMutability":"view"},{"type":"function","name":"rewards","inputs":[{"name":"","type":"address","internalType":"address"}],"outputs":[{"name":"","type":"uint256","internalType":"uint256"}],"stateMutability":"view"},{"type":"function","name":"rewardsToken","inputs":[],"outputs":[{"name":"","type":"address","internalType":"address"}],"stateMutability":"view"},{"type":"function","name":"setRewardRate","inputs":[{"name":"_rewardRate","type":"uint256","internalType":"uint256"}],"outputs":[],"stateMutability":"nonpayable"},{"type":"function","name":"stake","inputs":[{"name":"amount","type":"uint256","internalType":"uint256"}],"outputs":[],"stateMutability":"nonpayable"},{"type":"function","name":"stakedBalance","inputs":[{"name":"","type":"address","internalType":"address"}],"outputs":[{"name":"","type":"uint256","internalType":"uint256"}],"stateMutability":"view"},{"type":"function","name":"stakingToken","inputs":[],"outputs":[{"name":"","type":"address","internalType":"address"}],"stateMutability":"view"},{"type":"function","name":"totalStaked","inputs":[],"outputs":[{"name":"","type":"uint256","internalType":"uint256"}],"stateMutability":"view"},{"type":"function","name":"userRewardPerTokenPaid","inputs":[{"name":"","type":"address","internalType":"address"}],"outputs":[{"name":"","type":"uint256","internalType":"uint256"}],"stateMutability":"view"},{"type":"function","name":"withdraw","inputs":[{"name":"amount","type":"uint256","internalType":"uint256"}],"outputs":[],"stateMutability":"nonpayable"},{"type":"event","name":"RewardPaid","inputs":[{"name":"user","type":"address","indexed":true,"internalType":"address"},{"name":"reward","type":"uint256","indexed":false,"internalType":"uint256"}],"anonymous":false},{"type":"event","name":"RewardRateUpdated","inputs":[{"name":"newRate","type":"uint256","indexed":false,"internalType":"uint256"}],"anonymous":false},{"type":"event","name":"Staked","inputs":[{"name":"user","type":"address","indexed":true,"internalType":"address"},{"name":"amount","type":"uint256","indexed":false,"internalType":"uint256"}],"anonymous":false},{"type":"event","name":"Withdrawn","inputs":[{"name":"user","type":"address","indexed":true,"internalType":"address"},{"name":"amount","type":"uint256","indexed":false,"internalType":"uint256"}],"anonymous":false},{"type":"error","name":"InsufficientBalance","inputs":[]},{"type":"error","name":"InvalidAmount","inputs":[]},{"type":"error","name":"Unauthorized","inputs":[]}],"bytecode":{"object":"0x608060405234801561000f575f80fd5b506040516108ab3803806108ab83398101604081905261002e9161008f565b5f80546001600160a01b03199081163317909155600280546001600160a01b039586169083161790556001805493909416921691909117909155600355426004556100c8565b80516001600160a01b038116811461008a575f80fd5b919050565b5f805f606084860312156100a1575f80fd5b6100aa84610074565b92506100b860208501610074565b9150604084015190509250925092565b6107d6806100d55f395ff3fe608060405234801561000f575f80fd5b506004361061011b575f3560e01c80638b876347116100a9578063c8f33c911161006e578063c8f33c9114610264578063cd3daf9d1461026d578063d1af0c7d14610275578063df136d6514610288578063e9fad8ee14610291575f80fd5b80638b876347146102055780638da5cb5b146102245780639e447fc614610236578063a694fc3a14610249578063b88a802f1461025c575f80fd5b80633a02a42d116100ef5780633a02a42d1461018157806360217267146101a957806372f702f3146101c85780637b0a47ee146101f3578063817b1cd2146101fc575f80fd5b80628cc2621461011f5780630700037d146101455780630917e776146101645780632e1a7d4d1461016c575b5f80fd5b61013261012d3660046106ec565b610299565b6040519081526020015b60405180910390f35b6101326101533660046106ec565b60086020525f908152604090205481565b600654610132565b61017f61017a366004610719565b610314565b005b61013261018f3660046106ec565b6001600160a01b03165f9081526007602052604090205490565b6101326101b73660046106ec565b60076020525f908152604090205481565b6002546101db906001600160a01b031681565b6040516001600160a01b03909116815260200161013c565b61013260035481565b61013260065481565b6101326102133660046106ec565b60096020525f908152604090205481565b5f546101db906001600160a01b031681565b61017f610244366004610719565b610429565b61017f610257366004610719565b6104e1565b61017f6105bf565b61013260045481565b61013261066e565b6001546101db906001600160a01b031681565b61013260055481565b61017f6106ca565b6001600160a01b0381165f908152600860209081526040808320546009909252822054670de0b6b3a7640000906102ce61066e565b6102d89190610744565b6001600160a01b0385165f908152600760205260409020546102fa9190610757565b610304919061076e565b61030e919061078d565b92915050565b3361031d61066e565b600555426004556001600160a01b038116156103675761033c81610299565b6001600160a01b0382165f908152600860209081526040808320939093556005546009909152919020555b815f036103875760405163162908e360e11b815260040160405180910390fd5b335f908152600760205260409020548211156103b657604051631e9acf1760e31b815260040160405180910390fd5b8160065f8282546103c79190610744565b9091555050335f90815260076020526040812080548492906103ea908490610744565b909155505060405182815233907f7084f5476618d8e60b11ef0d7d3f06914655adb8793e28ff7f018d4c76d505d5906020015b60405180910390a25050565b5f546001600160a01b03163314610452576040516282b42960e81b815260040160405180910390fd5b5f61045b61066e565b600555426004556001600160a01b038116156104a55761047a81610299565b6001600160a01b0382165f908152600860209081526040808320939093556005546009909152919020555b60038290556040518281527f41d466ebd06fb97e7786086ac8b69b7eb7da798592036251291d34e9791cde019060200160405180910390a15050565b336104ea61066e565b600555426004556001600160a01b038116156105345761050981610299565b6001600160a01b0382165f908152600860209081526040808320939093556005546009909152919020555b815f036105545760405163162908e360e11b815260040160405180910390fd5b8160065f828254610565919061078d565b9091555050335f908152600760205260408120805484929061058890849061078d565b909155505060405182815233907f9e71bc8eea02a63969f509818f2dafb9254532904319f9dbda79b67bd34a5f3d9060200161041d565b336105c861066e565b600555426004556001600160a01b03811615610612576105e781610299565b6001600160a01b0382165f908152600860209081526040808320939093556005546009909152919020555b335f90815260086020526040902054801561066a57335f8181526008602052604080822091909155517fe2403640ba68fed3a2f88b7557551d1993f84b99bb10ff833f0cf8db0c5e04869061041d9084815260200190565b5050565b5f6006545f0361067f575060055490565b6006546003546004546106929042610744565b61069c9190610757565b6106ae90670de0b6b3a7640000610757565b6106b8919061076e565b6005546106c5919061078d565b905090565b335f908152600760205260409020546106e290610314565b6106ea6105bf565b565b5f602082840312156106fc575f80fd5b81356001600160a01b0381168114610712575f80fd5b9392505050565b5f60208284031215610729575f80fd5b5035919050565b634e487b7160e01b5f52601160045260245ffd5b8181038181111561030e5761030e610730565b808202811582820484141761030e5761030e610730565b5f8261078857634e487b7160e01b5f52601260045260245ffd5b500490565b8082018082111561030e5761030e61073056fea2646970667358221220259465fa15e20114efbc90652fdf88b9fb818daf9a3a164e9854f0c8497b322a64736f6c63430008140033","linkReferences":{}},"methodIdentifiers":{"claimReward()":"b88a802f","earned(address)":"008cc262","exit()":"e9fad8ee","getStakedBalance(address)":"3a02a42d","getTotalStaked()":"0917e776","lastUpdateTime()":"c8f33c91","owner()":"8da5cb5b","rewardPerToken()":"cd3daf9d","rewardPerTokenStored()":"df136d65","rewardRate()":"7b0a47ee","rewards(address)":"0700037d","rewardsToken()":"d1af0c7d","setRewardRate(uint256)":"9e447fc6","stake(uint256)":"a694fc3a","stakedBalance(address)":"60217267","stakingToken()":"72f702f3","totalStaked()":"817b1cd2","userRewardPerTokenPaid(address)":"8b876347","withdraw(uint256)":"2e1a7d4d"},"id":2}