{"abi":[{"type":"constructor","inputs":[{"name":"_token0","type":"address","internalType":"address"},{"name":"_token1","type":"address","internalType":"address"}],"stateMutability":"nonpayable"},{"type":"function","name":"addLiquidity","inputs":[{"name":"amount0Desired","type":"uint256","internalType":"uint256"},{"name":"amount1Desired","type":"uint256","internalType":"uint256"},{"name":"amount0Min","type":"uint256","internalType":"uint256"},{"name":"amount1Min","type":"uint256","internalType":"uint256"},{"name":"to","type":"address","internalType":"address"}],"outputs":[{"name":"amount0","type":"uint256","internalType":"uint256"},{"name":"amount1","type":"uint256","internalType":"uint256"},{"name":"liquidity","type":"uint256","internalType":"uint256"}],"stateMutability":"nonpayable"},{"type":"function","name":"allowance","inputs":[{"name":"","type":"address","internalType":"address"},{"name":"","type":"address","internalType":"address"}],"outputs":[{"name":"","type":"uint256","internalType":"uint256"}],"stateMutability":"view"},{"type":"function","name":"approve","inputs":[{"name":"spender","type":"address","internalType":"address"},{"name":"value","type":"uint256","internalType":"uint256"}],"outputs":[{"name":"","type":"bool","internalType":"bool"}],"stateMutability":"nonpayable"},{"type":"function","name":"balanceOf","inputs":[{"name":"","type":"address","internalType":"address"}],"outputs":[{"name":"","type":"uint256","internalType":"uint256"}],"stateMutability":"view"},{"type":"function","name":"decimals","inputs":[],"outputs":[{"name":"","type":"uint8","internalType":"uint8"}],"stateMutability":"view"},{"type":"function","name":"getAmountOut","inputs":[{"name":"amountIn","type":"uint256","internalType":"uint256"},{"name":"reserveIn","type":"uint256","internalType":"uint256"},{"name":"reserveOut","type":"uint256","internalType":"uint256"}],"outputs":[{"name":"amountOut","type":"uint256","internalType":"uint256"}],"stateMutability":"pure"},{"type":"function","name":"getReserves","inputs":[],"outputs":[{"name":"_reserve0","type":"uint256","internalType":"uint256"},{"name":"_reserve1","type":"uint256","internalType":"uint256"}],"stateMutability":"view"},{"type":"function","name":"name","inputs":[],"outputs":[{"name":"","type":"string","internalType":"string"}],"stateMutability":"view"},{"type":"function","name":"removeLiquidity","inputs":[{"name":"liquidity","type":"uint256","internalType":"uint256"},{"name":"amount0Min","type":"uint256","internalType":"uint256"},{"name":"amount1Min","type":"uint256","internalType":"uint256"},{"name":"to","type":"address","internalType":"address"}],"outputs":[{"name":"amount0","type":"uint256","internalType":"uint256"},{"name":"amount1","type":"uint256","internalType":"uint256"}],"stateMutability":"nonpayable"},{"type":"function","name":"reserve0","inputs":[],"outputs":[{"name":"","type":"uint256","internalType":"uint256"}],"stateMutability":"view"},{"type":"function","name":"reserve1","inputs":[],"outputs":[{"name":"","type":"uint256","internalType":"uint256"}],"stateMutability":"view"},{"type":"function","name":"swap","inputs":[{"name":"amount0Out","type":"uint256","internalType":"uint256"},{"name":"amount1Out","type":"uint256","internalType":"uint256"},{"name":"to","type":"address","internalType":"address"}],"outputs":[],"stateMutability":"nonpayable"},{"type":"function","name":"symbol","inputs":[],"outputs":[{"name":"","type":"string","internalType":"string"}],"stateMutability":"view"},{"type":"function","name":"token0","inputs":[],"outputs":[{"name":"","type":"address","internalType":"address"}],"stateMutability":"view"},{"type":"function","name":"token1","inputs":[],"outputs":[{"name":"","type":"address","internalType":"address"}],"stateMutability":"view"},{"type":"function","name":"totalSupply","inputs":[],"outputs":[{"name":"","type":"uint256","internalType":"uint256"}],"stateMutability":"view"},{"type":"function","name":"transfer","inputs":[{"name":"to","type":"address","internalType":"address"},{"name":"value","type":"uint256","internalType":"uint256"}],"outputs":[{"name":"","type":"bool","internalType":"bool"}],"stateMutability":"nonpayable"},{"type":"function","name":"transferFrom","inputs":[{"name":"from","type":"address","internalType":"address"},{"name":"to","type":"address","internalType":"address"},{"name":"value","type":"uint256","internalType":"uint256"}],"outputs":[{"name":"","type":"bool","internalType":"bool"}],"stateMutability":"nonpayable"},{"type":"event","name":"Approval","inputs":[{"name":"owner","type":"address","indexed":true,"internalType":"address"},{"name":"spender","type":"address","indexed":true,"internalType":"address"},{"name":"value","type":"uint256","indexed":false,"internalType":"uint256"}],"anonymous":false},{"type":"event","name":"Burn","inputs":[{"name":"sender","type":"address","indexed":true,"internalType":"address"},{"name":"amount0","type":"uint256","indexed":false,"internalType":"uint256"},{"name":"amount1","type":"uint256","indexed":false,"internalType":"uint256"},{"name":"to","type":"address","indexed":true,"internalType":"address"}],"anonymous":false},{"type":"event","name":"Mint","inputs":[{"name":"sender","type":"address","indexed":true,"internalType":"address"},{"name":"amount0","type":"uint256","indexed":false,"internalType":"uint256"},{"name":"amount1","type":"uint256","indexed":false,"internalType":"uint256"}],"anonymous":false},{"type":"event","name":"Swap","inputs":[{"name":"sender","type":"address","indexed":true,"internalType":"address"},{"name":"amount0In","type":"uint256","indexed":false,"internalType":"uint256"},{"name":"amount1In","type":"uint256","indexed":false,"internalType":"uint256"},{"name":"amount0Out","type":"uint256","indexed":false,"internalType":"uint256"},{"name":"amount1Out","type":"uint256","indexed":false,"internalType":"uint256"},{"name":"to","type":"address","indexed":true,"internalType":"address"}],"anonymous":false},{"type":"event","name":"Sync","inputs":[{"name":"reserve0","type":"uint256","indexed":false,"internalType":"uint256"},{"name":"reserve1","type":"uint256","indexed":false,"internalType":"uint256"}],"anonymous":false},{"type":"event","name":"Transfer","inputs":[{"name":"from","type":"address","indexed":true,"internalType":"address"},{"name":"to","type":"address","indexed":true,"internalType":"address"},{"name":"value","type":"uint256","indexed":false,"internalType":"uint256"}],"anonymous":false},{"type":"error","name":"InsufficientLiquidity","inputs":[]},{"type":"error","name":"InsufficientOutputAmount","inputs":[]},{"type":"error","name":"InvalidAmount","inputs":[]},{"type":"error","name":"TransferFailed","inputs":[]}],"bytecode":{"object":"0x608060405234801562000010575f80fd5b5060405162001200380380620012008339810160408190526200003391620000e1565b600380546001600160a01b038085166001600160a01b03199283161790925560048054928416929091169190911790556040805180820190915260088152672628102a37b5b2b760c11b60208201525f90620000909082620001b7565b50604080518082019091526005815264262816ab1960d91b6020820152600190620000bc9082620001b7565b5050506200027f565b80516001600160a01b0381168114620000dc575f80fd5b919050565b5f8060408385031215620000f3575f80fd5b620000fe83620000c5565b91506200010e60208401620000c5565b90509250929050565b634e487b7160e01b5f52604160045260245ffd5b600181811c908216806200014057607f821691505b6020821081036200015f57634e487b7160e01b5f52602260045260245ffd5b50919050565b601f821115620001b2575f81815260208120601f850160051c810160208610156200018d5750805b601f850160051c820191505b81811015620001ae5782815560010162000199565b5050505b505050565b81516001600160401b03811115620001d357620001d362000117565b620001eb81620001e484546200012b565b8462000165565b602080601f83116001811462000221575f8415620002095750858301515b5f19600386901b1c1916600185901b178555620001ae565b5f85815260208120601f198616915b82811015620002515788860151825594840194600190910190840162000230565b50858210156200026f57878501515f19600388901b60f8161c191681555b5050505050600190811b01905550565b610f73806200028d5f395ff3fe608060405234801561000f575f80fd5b5060043610610111575f3560e01c80635a76f25e1161009e578063a9059cbb1161006e578063a9059cbb1461023e578063d21220a714610251578063dd62ed3e14610264578063e0ab07721461028e578063e39b0eb5146102bc575f80fd5b80635a76f25e146101f95780636d9a640a1461020257806370a082311461021757806395d89b4114610236575f80fd5b80630dfe1681116100e45780630dfe16811461018f57806318160ddd146101ba57806323b872dd146101c3578063313ce567146101d6578063443cb4bc146101f0575f80fd5b8063054d50d41461011557806306fdde031461013b5780630902f1ac14610150578063095ea7b31461016c575b5f80fd5b610128610123366004610cb3565b6102cf565b6040519081526020015b60405180910390f35b610143610363565b6040516101329190610cdc565b6005546006545b60408051928352602083019190915201610132565b61017f61017a366004610d3d565b6103ee565b6040519015158152602001610132565b6003546101a2906001600160a01b031681565b6040516001600160a01b039091168152602001610132565b61012860025481565b61017f6101d1366004610d65565b61045a565b6101de601281565b60405160ff9091168152602001610132565b61012860055481565b61012860065481565b610215610210366004610d9e565b6104ea565b005b610128610225366004610dd0565b60076020525f908152604090205481565b6101436105a8565b61017f61024c366004610d3d565b6105b5565b6004546101a2906001600160a01b031681565b610128610272366004610de9565b600860209081525f928352604080842090915290825290205481565b6102a161029c366004610e1a565b6105ca565b60408051938452602084019290925290820152606001610132565b6101576102ca366004610e5f565b610632565b5f835f036102f05760405163162908e360e11b815260040160405180910390fd5b8215806102fb575081155b156103195760405163bb55fd2760e01b815260040160405180910390fd5b5f610326856103e56106d4565b90505f61033382856106d4565b90505f61034c83610346886103e86106d4565b9061075e565b90506103588183610eaf565b979650505050505050565b5f805461036f90610ece565b80601f016020809104026020016040519081016040528092919081815260200182805461039b90610ece565b80156103e65780601f106103bd576101008083540402835291602001916103e6565b820191905f5260205f20905b8154815290600101906020018083116103c957829003601f168201915b505050505081565b335f8181526008602090815260408083206001600160a01b038716808552925280832085905551919290917f8c5be1e5ebec7d5bd14f71427d1e84f3dd0314c0f7b2291e5b200ac8c7c3b925906104489086815260200190565b60405180910390a35060015b92915050565b6001600160a01b0383165f9081526008602090815260408083203384529091528120545f19146104d5576001600160a01b0384165f9081526008602090815260408083203384529091529020546104b190836107bc565b6001600160a01b0385165f9081526008602090815260408083203384529091529020555b6104e0848484610817565b5060019392505050565b821580156104f6575081155b156105145760405163162908e360e11b815260040160405180910390fd5b600554831180610525575060065482115b156105435760405163bb55fd2760e01b815260040160405180910390fd5b61054e8383836108ba565b604080515f8082526020820152908101849052606081018390526001600160a01b0382169033907fd78ad95fa46c994b6551d0da85fc275fe613ce37657fb8d5e3d130840159d822906080015b60405180910390a3505050565b6001805461036f90610ece565b5f6105c1338484610817565b50600192915050565b5f805f6105d988888888610922565b90935091506105e98484846109e5565b604080518581526020810185905291925033917f4c209b5fc8ad50758f13e2e1088ba56a560dff690a1c6fef26394f4c03821c4f910160405180910390a2955095509592505050565b5f8061063e8387610b24565b909250905084821015610664576040516342301c2360e01b815260040160405180910390fd5b83811015610685576040516342301c2360e01b815260040160405180910390fd5b60408051838152602081018390526001600160a01b0385169133917fdccd412f0b1252819cb1fd330b93224ca42612892bb3f4f789976e6d81936496910160405180910390a394509492505050565b5f825f036106e357505f610454565b5f6106ee8385610f00565b9050826106fb8583610eaf565b146107575760405162461bcd60e51b815260206004820152602160248201527f536166654d6174683a206d756c7469706c69636174696f6e206f766572666c6f6044820152607760f81b60648201526084015b60405180910390fd5b9392505050565b5f8061076a8385610f17565b9050838110156107575760405162461bcd60e51b815260206004820152601b60248201527f536166654d6174683a206164646974696f6e206f766572666c6f770000000000604482015260640161074e565b5f8282111561080d5760405162461bcd60e51b815260206004820152601e60248201527f536166654d6174683a207375627472616374696f6e206f766572666c6f770000604482015260640161074e565b6107578284610f2a565b6001600160a01b0383165f9081526007602052604090205461083990826107bc565b6001600160a01b038085165f908152600760205260408082209390935590841681522054610867908261075e565b6001600160a01b038084165f8181526007602052604090819020939093559151908516907fddf252ad1be2c89b69c2b068fc378daa952ba7f163c4a11628f55a4df523b3ef9061059b9085815260200190565b6005546108c790846107bc565b6005556006546108d790836107bc565b60068190556005546040517fcf2aa50876cdfbb541206f89af0ee78d44a2abf8d328e37fa4917f982149848a92610915928252602082015260400190565b60405180910390a1505050565b5f806005545f1480156109355750600654155b156109445750849050836109dc565b5f600554600654886109569190610f00565b6109609190610eaf565b9050858111610995578381101561098a576040516342301c2360e01b815260040160405180910390fd5b8692509050806109da565b5f600654600554886109a79190610f00565b6109b19190610eaf565b9050858110156109d4576040516342301c2360e01b815260040160405180910390fd5b92508591505b505b94509492505050565b5f6002545f03610a0857610a016109fc84846106d4565b610c30565b9050610a50565b610a4d600554610a23600254866106d490919063ffffffff16565b610a2d9190610eaf565b600654600254610a3e9086906106d4565b610a489190610eaf565b610c9e565b90505b805f03610a705760405163bb55fd2760e01b815260040160405180910390fd5b6001600160a01b0384165f90815260076020526040902054610a92908261075e565b6001600160a01b0385165f90815260076020526040902055600254610ab7908261075e565b600255600554610ac7908461075e565b600555600654610ad7908361075e565b60068190556005546040517fcf2aa50876cdfbb541206f89af0ee78d44a2abf8d328e37fa4917f982149848a92610b15928252602082015260400190565b60405180910390a19392505050565b6005546006546002545f9283929091610b3d86846106d4565b610b479190610eaf565b600254909450610b5786836106d4565b610b619190610eaf565b9250831580610b6e575082155b15610b8c5760405163bb55fd2760e01b815260040160405180910390fd5b335f90815260076020526040902054610ba590866107bc565b335f90815260076020526040902055600254610bc190866107bc565b600255600554610bd190856107bc565b600555600654610be190846107bc565b60068190556005546040517fcf2aa50876cdfbb541206f89af0ee78d44a2abf8d328e37fa4917f982149848a92610c1f928252602082015260400190565b60405180910390a150509250929050565b5f6003821115610c8f5750805f610c48600283610eaf565b610c53906001610f17565b90505b81811015610c8957905080600281610c6e8186610eaf565b610c789190610f17565b610c829190610eaf565b9050610c56565b50919050565b8115610c99575060015b919050565b5f818310610cac5781610757565b5090919050565b5f805f60608486031215610cc5575f80fd5b505081359360208301359350604090920135919050565b5f6020808352835180828501525f5b81811015610d0757858101830151858201604001528201610ceb565b505f604082860101526040601f19601f8301168501019250505092915050565b80356001600160a01b0381168114610c99575f80fd5b5f8060408385031215610d4e575f80fd5b610d5783610d27565b946020939093013593505050565b5f805f60608486031215610d77575f80fd5b610d8084610d27565b9250610d8e60208501610d27565b9150604084013590509250925092565b5f805f60608486031215610db0575f80fd5b8335925060208401359150610dc760408501610d27565b90509250925092565b5f60208284031215610de0575f80fd5b61075782610d27565b5f8060408385031215610dfa575f80fd5b610e0383610d27565b9150610e1160208401610d27565b90509250929050565b5f805f805f60a08688031215610e2e575f80fd5b85359450602086013593506040860135925060608601359150610e5360808701610d27565b90509295509295909350565b5f805f8060808587031215610e72575f80fd5b843593506020850135925060408501359150610e9060608601610d27565b905092959194509250565b634e487b7160e01b5f52601160045260245ffd5b5f82610ec957634e487b7160e01b5f52601260045260245ffd5b500490565b600181811c90821680610ee257607f821691505b602082108103610c8957634e487b7160e01b5f52602260045260245ffd5b808202811582820484141761045457610454610e9b565b8082018082111561045457610454610e9b565b8181038181111561045457610454610e9b56fea2646970667358221220525ce68783700fafa98dc46ede749274b0d59a3f3c87e5569982ef083d7ce34064736f6c63430008140033","linkReferences":{}},"methodIdentifiers":{"addLiquidity(uint256,uint256,uint256,uint256,address)":"e0ab0772","allowance(address,address)":"dd62ed3e","approve(address,uint256)":"095ea7b3","balanceOf(address)":"70a08231","decimals()":"313ce567","getAmountOut(uint256,uint256,uint256)":"054d50d4","getReserves()":"0902f1ac","name()":"06fdde03","removeLiquidity(uint256,uint256,uint256,address)":"e39b0eb5","reserve0()":"443cb4bc","reserve1()":"5a76f25e","swap(uint256,uint256,address)":"6d9a640a","symbol()":"95d89b41","token0()":"0dfe1681","token1()":"d21220a7","totalSupply()":"18160ddd","transfer(address,uint256)":"a9059cbb","transferFrom(address,address,uint256)":"23b872dd"},"id":1}