{"abi":[{"type":"constructor","inputs":[{"name":"initialSupply","type":"uint256","internalType":"uint256"}],"stateMutability":"nonpayable"},{"type":"function","name":"allowance","inputs":[{"name":"owner","type":"address","internalType":"address"},{"name":"spender","type":"address","internalType":"address"}],"outputs":[{"name":"","type":"uint256","internalType":"uint256"}],"stateMutability":"view"},{"type":"function","name":"approve","inputs":[{"name":"spender","type":"address","internalType":"address"},{"name":"amount","type":"uint256","internalType":"uint256"}],"outputs":[{"name":"","type":"bool","internalType":"bool"}],"stateMutability":"nonpayable"},{"type":"function","name":"balanceOf","inputs":[{"name":"account","type":"address","internalType":"address"}],"outputs":[{"name":"","type":"uint256","internalType":"uint256"}],"stateMutability":"view"},{"type":"function","name":"decimals","inputs":[],"outputs":[{"name":"","type":"uint8","internalType":"uint8"}],"stateMutability":"view"},{"type":"function","name":"delegate","inputs":[{"name":"delegatee","type":"address","internalType":"address"}],"outputs":[],"stateMutability":"nonpayable"},{"type":"function","name":"delegateBySig","inputs":[{"name":"delegatee","type":"address","internalType":"address"},{"name":"nonce","type":"uint256","internalType":"uint256"},{"name":"expiry","type":"uint256","internalType":"uint256"},{"name":"v","type":"uint8","internalType":"uint8"},{"name":"r","type":"bytes32","internalType":"bytes32"},{"name":"s","type":"bytes32","internalType":"bytes32"}],"outputs":[],"stateMutability":"nonpayable"},{"type":"function","name":"delegates","inputs":[{"name":"delegator","type":"address","internalType":"address"}],"outputs":[{"name":"","type":"address","internalType":"address"}],"stateMutability":"view"},{"type":"function","name":"getCurrentVotes","inputs":[{"name":"account","type":"address","internalType":"address"}],"outputs":[{"name":"","type":"uint256","internalType":"uint256"}],"stateMutability":"view"},{"type":"function","name":"getPriorVotes","inputs":[{"name":"account","type":"address","internalType":"address"},{"name":"blockNumber","type":"uint256","internalType":"uint256"}],"outputs":[{"name":"","type":"uint256","internalType":"uint256"}],"stateMutability":"view"},{"type":"function","name":"name","inputs":[],"outputs":[{"name":"","type":"string","internalType":"string"}],"stateMutability":"view"},{"type":"function","name":"symbol","inputs":[],"outputs":[{"name":"","type":"string","internalType":"string"}],"stateMutability":"view"},{"type":"function","name":"totalSupply","inputs":[],"outputs":[{"name":"","type":"uint256","internalType":"uint256"}],"stateMutability":"view"},{"type":"function","name":"transfer","inputs":[{"name":"to","type":"address","internalType":"address"},{"name":"amount","type":"uint256","internalType":"uint256"}],"outputs":[{"name":"","type":"bool","internalType":"bool"}],"stateMutability":"nonpayable"},{"type":"function","name":"transferFrom","inputs":[{"name":"from","type":"address","internalType":"address"},{"name":"to","type":"address","internalType":"address"},{"name":"amount","type":"uint256","internalType":"uint256"}],"outputs":[{"name":"","type":"bool","internalType":"bool"}],"stateMutability":"nonpayable"},{"type":"event","name":"Approval","inputs":[{"name":"owner","type":"address","indexed":true,"internalType":"address"},{"name":"spender","type":"address","indexed":true,"internalType":"address"},{"name":"value","type":"uint256","indexed":false,"internalType":"uint256"}],"anonymous":false},{"type":"event","name":"DelegateChanged","inputs":[{"name":"delegator","type":"address","indexed":true,"internalType":"address"},{"name":"fromDelegate","type":"address","indexed":true,"internalType":"address"},{"name":"toDelegate","type":"address","indexed":true,"internalType":"address"}],"anonymous":false},{"type":"event","name":"DelegateVotesChanged","inputs":[{"name":"delegate","type":"address","indexed":true,"internalType":"address"},{"name":"previousBalance","type":"uint256","indexed":false,"internalType":"uint256"},{"name":"newBalance","type":"uint256","indexed":false,"internalType":"uint256"}],"anonymous":false},{"type":"event","name":"Transfer","inputs":[{"name":"from","type":"address","indexed":true,"internalType":"address"},{"name":"to","type":"address","indexed":true,"internalType":"address"},{"name":"value","type":"uint256","indexed":false,"internalType":"uint256"}],"anonymous":false},{"type":"error","name":"BlockNotYetMined","inputs":[]},{"type":"error","name":"InsufficientAllowance","inputs":[{"name":"available","type":"uint256","internalType":"uint256"},{"name":"required","type":"uint256","internalType":"uint256"}]},{"type":"error","name":"InsufficientBalance","inputs":[{"name":"available","type":"uint256","internalType":"uint256"},{"name":"required","type":"uint256","internalType":"uint256"}]},{"type":"error","name":"InvalidAddress","inputs":[]}],"bytecode":{"object":"0x608034620003e157601f620013d338819003918201601f1916830192916001600160401b03919082851184861017620003e65780849260409687528339602093849181010312620003e15751913315620003d057600091620000638484546200041c565b83553383526001825284832080548501905560038252848320546001600160a01b0316908115158080620003c6575b620000c2575b505050600080516020620013938339815191529084519384523393a351610eb99081620004da8239f35b620000cf575b8062000098565b8184526005835285842054801580159190620003be5760048552878620600019820190828211620002455790620001069162000440565b5054851c905b6001600160e01b03918216936200012489866200041c565b936200016a62000133620003fc565b601c81527f426c6f636b206e756d62657220657863656564732033322062697473000000008a82015264010000000043106200046f565b63ffffffff90814316908062000379575b156200025957505050620001c862000192620003fc565b601581527f566f74657320657863656564203232342062697473000000000000000000000088820152600160e01b85106200046f565b848752600486528887206000198201918211620002455792620002338a93620002156000805160206200139383398151915299989794600080516020620013b38339815191529762000440565b50805463ffffffff1691841660201b63ffffffff1916919091179055565b825191825285820152a29038620000c8565b634e487b7160e01b88526011600452602488fd5b620002a16200026b95939495620003fc565b601581527f566f7465732065786365656420323234206269747300000000000000000000008b820152600160e01b88106200046f565b8b5193848d019081118582101762000365578c528352878301908286168252878a5260048952620002d5858d8c2062000440565b949094620003515751915163ffffffff19931660201b92909216911663ffffffff16179055600181018091116200033d578392600080516020620013b38339815191529289926000805160206200139383398151915297968952600587528389205562000233565b634e487b7160e01b86526011600452602486fd5b634e487b7160e01b8b5260048b905260248bfd5b634e487b7160e01b8b52604160045260248bfd5b50878a52600489528b8a20600019850190858211620003aa57620003a08392859262000440565b505416146200017b565b634e487b7160e01b8c52601160045260248cfd5b85906200010c565b5085151562000092565b835163e6c4247b60e01b8152600490fd5b600080fd5b634e487b7160e01b600052604160045260246000fd5b60408051919082016001600160401b03811183821017620003e657604052565b919082018092116200042a57565b634e487b7160e01b600052601160045260246000fd5b8054821015620004595760005260206000200190600090565b634e487b7160e01b600052603260045260246000fd5b15620004785750565b6040519062461bcd60e51b82528160208060048301528251908160248401526000935b828510620004bf575050604492506000838284010152601f80199101168101030190fd5b84810182015186860160440152938101938593506200049b56fe608060408181526004918236101561001657600080fd5b600092833560e01c91826306fdde03146105d757508163095ea7b3146105ad57816318160ddd1461059057816323b872dd146104f1578163313ce567146104d5578163587cde1e1461049a5781635c19a95c1461047757816370a082311461043f578163782d6fe11461040f57816395d89b41146103d0578163a9059cbb1461039f578163b4b5ea571461030e578163c3cda5201461010a575063dd62ed3e146100bf57600080fd5b34610106578060031936011261010657806020926100db6106ba565b6100e36106d5565b6001600160a01b0391821683526002865283832091168252845220549051908152f35b5080fd5b839150346101065760c0366003190112610106576101266106ba565b90604435906064359160ff831680930361030a5785519061014682610623565b601082526f23b7bb32b93730b731b2902a37b5b2b760811b60208093015286518281017f8cad95687ba82c2ce50e74f7b754645e5117c3a5bec8151c0726d5857980a86681527f0a4c67eb2b69618dc4decce5353771a9167aab9906ba6cfedda5f34e0ea10a618983015246606083015260809130838201528281526101cb81610655565b51902088517fe48329057bfd03d55e49b547132e39cffd9c1820ad7b9d4c5307691425d15adf8582019081526001600160a01b03898116838d01526024356060840152848301869052848352979161022281610655565b519020908a51918683019361190160f01b855260228401526042830152604282528382019282841067ffffffffffffffff8511176102f757838c5282519020835260a082015260843560c082015260a43560e0909101528780528391889160015afa156102ed578551938416156102dd5742116102a757846102a48585610a21565b80f35b855162461bcd60e51b815291820152601160248201527014da59db985d1d5c9948195e1c1a5c9959607a1b604482015260649150fd5b865163e6c4247b60e01b81528390fd5b86513d87823e3d90fd5b634e487b7160e01b8b526041885260248bfd5b8480fd5b82843461039c57602036600319011261039c576001600160a01b036103316106ba565b168152600560205281812054908115610390578360205282812090600019830192831161037d575060209350906103679161070e565b5054821c905b516001600160e01b039091168152f35b634e487b7160e01b815260118552602490fd5b9050602092509061036d565b80fd5b5050346101065780600319360112610106576020906103c96103bf6106ba565b60243590336108f6565b5160018152f35b505034610106578160031936011261010657805161040b916103f182610623565b600382526223a7ab60e91b60208301525191829182610671565b0390f35b50503461010657806003193601126101065760209061043861042f6106ba565b6024359061073c565b9051908152f35b5050346101065760203660031901126101065760209181906001600160a01b036104676106ba565b1681526001845220549051908152f35b833461039c57602036600319011261039c576102a46104946106ba565b33610a21565b505034610106576020366003190112610106576020916001600160a01b03908290826104c46106ba565b168152600385522054169051908152f35b5050346101065781600319360112610106576020905160128152f35b82843461039c57606036600319011261039c5761050c6106ba565b6105146106d5565b93836044359360018060a01b03841681526002602052818120338252602052205490600019820361054e575b6020856103c98689876108f6565b838210610575575093829161056b6103c9946020970333836109c0565b9192819550610540565b8360449286519263054365bb60e31b84528301526024820152fd5b505034610106578160031936011261010657602091549051908152f35b5050346101065780600319360112610106576020906103c96105cd6106ba565b60243590336109c0565b8490843461061f578260031936011261061f5761040b92506105f882610623565b601082526f23b7bb32b93730b731b2902a37b5b2b760811b60208301525191829182610671565b8280fd5b6040810190811067ffffffffffffffff82111761063f57604052565b634e487b7160e01b600052604160045260246000fd5b60a0810190811067ffffffffffffffff82111761063f57604052565b6020808252825181830181905290939260005b8281106106a657505060409293506000838284010152601f8019910116010190565b818101860151848201604001528501610684565b600435906001600160a01b03821682036106d057565b600080fd5b602435906001600160a01b03821682036106d057565b919082039182116106f857565b634e487b7160e01b600052601160045260246000fd5b80548210156107265760005260206000200190600090565b634e487b7160e01b600052603260045260246000fd5b438210156108e4576001600160a01b0316600081815260056020908152604080832054919492909180156108db5760049081875283832094600019918281019081119687610894578161078e9161070e565b50908263ffffffff8093541611156108c757888652848a528686208054156108b457865282828b88205416116108a757859761089457989798929092915b8783116107ed57505050506107e69495825285522061070e565b5054901c90565b9091959493928761080c610803839c9a8a6106eb565b60011c896106eb565b90898752858b5261081f8289892061070e565b508b89519161082d83610623565b549d8e1691828152019c8c1c8d5284811460001461086057505099516001600160e01b03169a9950505050505050505050565b8495969798999a9b9c509390919293106000146108865750965b919897989290926107cc565b97508381019081111561087a575b634e487b7160e01b865260118552602486fd5b5050505050935050505090565b634e487b7160e01b875260328652602487fd5b9785525050508552206107e692915061070e565b50935050505090565b60405163185e74f560e11b8152600490fd5b6001600160a01b03929083169182156109ae5783169283156109ae576000838152600160205260409182822054848110610991578483602095938261098a948a7fddf252ad1be2c89b69c2b068fc378daa952ba7f163c4a11628f55a4df523b3ef9a98526001895203858320558982528482208381540190558882526003875284818184205416928b815220541690610a9c565b51908152a3565b6044908585519163cf47918160e01b835260048301526024820152fd5b60405163e6c4247b60e01b8152600490fd5b6001600160a01b039081169182156109ae57169182156109ae5760207f8c5be1e5ebec7d5bd14f71427d1e84f3dd0314c0f7b2291e5b200ac8c7c3b925918360005260028252604060002085600052825280604060002055604051908152a3565b610a9a9160018060a01b03809216600092818452600360205280604085205416809260016020527f3134e8a2e6d97e929a7e54011ea5485d7d196dd5f0ba4d4ef95803e8e3fc257f60408720549660036020526040812094871694856bffffffffffffffffffffffff60a01b82541617905580a4610a9c565b565b6001600160a01b038281169493919081168086141580610beb575b610ac4575b505050509050565b80610b69575b505083610ad9575b8080610abc565b6000938452600560205260408420548015610b6357600460205260408520600019820190828211610b4f5790610b0e9161070e565b505460201c5b6001600160e01b031691820192838311610b3b57610b33949550610bf4565b803880610ad2565b634e487b7160e01b86526011600452602486fd5b634e487b7160e01b87526011600452602487fd5b84610b14565b600090815260056020526040812054908115610be057600460205260408120600019830191838311610bcc5750610bc5939291610ba59161070e565b505460201c5b6001600160e01b031690610bbf85836106eb565b92610bf4565b3880610aca565b634e487b7160e01b81526011600452602490fd5b90610bc59291610bab565b50821515610ab7565b929091926040918251610c0681610623565b601c8152610c426020917f426c6f636b206e756d6265722065786365656473203332206269747300000000838201526401000000004310610e5b565b63ffffffff80431686151580610e23575b15610d15575050610c958451610c6881610623565b6015815274566f7465732065786365656420323234206269747360581b83820152600160e01b8410610e5b565b6001600160a01b0383166000908152600482528490209460001981019081116106f857610ce6610d00917fdec2bacdd2f05b59de34da9b523dff8be42e5e38e818c82fdb0bae774387a7249761070e565b50805463ffffffff16602085901b63ffffffff1916179055565b83519586528501526001600160a01b031692a2565b908598979691610d568751610d2981610623565b6015815274566f7465732065786365656420323234206269747360581b86820152600160e01b8710610e5b565b865190610d6282610623565b81526001600160e01b038581168583019081526001600160a01b0388166000818152600488529c8d20909490610d9990879061070e565b949094610e0f5751915163ffffffff19931660201b92909216911663ffffffff1617905560018201809211610dfb578886917fdec2bacdd2f05b59de34da9b523dff8be42e5e38e818c82fdb0bae774387a72498999a52600584522055610d00565b634e487b7160e01b89526011600452602489fd5b634e487b7160e01b8e5260048e905260248efd5b506001600160a01b03851660009081526004845286902060001988018881116106f857610e528491849361070e565b50541614610c53565b15610e635750565b60405162461bcd60e51b8152908190610e7f9060048301610671565b0390fdfea264697066735822122048405443e363674a0050ee9c914bb4e5ce6357341a9a2b2f61eae91299154ff464736f6c63430008130033ddf252ad1be2c89b69c2b068fc378daa952ba7f163c4a11628f55a4df523b3efdec2bacdd2f05b59de34da9b523dff8be42e5e38e818c82fdb0bae774387a724","linkReferences":{}},"methodIdentifiers":{"allowance(address,address)":"dd62ed3e","approve(address,uint256)":"095ea7b3","balanceOf(address)":"70a08231","decimals()":"313ce567","delegate(address)":"5c19a95c","delegateBySig(address,uint256,uint256,uint8,bytes32,bytes32)":"c3cda520","delegates(address)":"587cde1e","getCurrentVotes(address)":"b4b5ea57","getPriorVotes(address,uint256)":"782d6fe1","name()":"06fdde03","symbol()":"95d89b41","totalSupply()":"18160ddd","transfer(address,uint256)":"a9059cbb","transferFrom(address,address,uint256)":"23b872dd"},"id":0}